:020000040800F2
:100000000040012021530008394700083B47000801
:100010003947000839470008394700080000000048
:100020000000000000000000000000003947000848
:100030003947000800000000394700082947000838
:100040003947000839470008394700083947000890
:100050003947000839470008394700083947000880
:100060003947000839470008394700083947000870
:100070003947000839470008394700083947000860
:100080003947000839470008394700083947000850
:100090003947000839470008394700083947000840
:1000A0003947000839470008394700083947000830
:1000B0003947000839470008394700083947000820
:1000C0003947000839470008394700083947000810
:1000D00039470008DD18000839470008394700088B
:1000E000394700083D4700083947000839470008EC
:1000F00039470008394700083947000839470008E0
:1001000039470008594200083947000839470008B4
:1001100039470008394700083947000859100008D6
:10012000394700083947000839470008614200088C
:10013000394700083947000839470008394700089F
:10014000394700083947000839470008394700088F
:10015000394700083947000839470008494F000867
:10016000394700083947000839470008394700086F
:10017000394700083947000839470008394700085F
:0401800039470008F3
:1001840010B5054C237833B9044B13B10448AFF3CD
:1001940000800123237010BDE8030020000000004C
:1001A4004860000808B5034B1BB103490348AFF38B
:1001B400008008BD00000000EC0300204860000837
:1001C400034613F8012B002AFBD1181A0138704793
:1001D40040F0BF6040F40030014BD860704700BF6E
:1001E40000ED00E0C3785BB903785A0903F01F03FC
:1001F400012101FA03F32032134941F822307047F8
:1002040010B4124BDA68D243C2F30222C2F10403DF
:10021400DCB20F2141FA02F24378A340DBB28178C9
:100224000A4013431B01DBB2027807490A4482F8EF
:1002340000330378580903F01F03012202FA03F381
:1002440041F8203010BC704700E100E000ED00E010
:1002540010B4436823F0407323F480730C790A6864
:1002640042EA04221343436083680B4A1A400B6931
:10027400CC6823438C6823434C7943EA44031343F7
:100284008360C36A23F470030A7D013AD2B243EA5D
:100294000253C36210BC7047FDF7FFC00023036024
:1002A400037143718360C360036101230375704765
:1002B40010B407494B68074A1A400368446823434B
:1002C40084682343C068034313434B6010BC7047E6
:1002D40000230140E030FCFF21B9836823F00103CF
:1002E40083607047836843F001038360704770B490
:1002F40009291DD9C568A1F10A0404EB44040726A1
:10030400A64025EA060503FA04F42C43C460062A31
:100314001AD90C2A26D9C36A0D3A02EB82021F2489
:10032400944023EA040301FA02F21A43C26217E07A
:10033400056901EB41060724B44025EA040503FAE4
:1003440006F42C430461E2E7436B013A02EB8202B8
:100354001F24944023EA040301FA02F21A4342637D
:1003640070BC7047036B073A02EB82021F2494406F
:1003740023EA040301FA02F21A430263F0E78368F2
:1003840043F0804383607047C06C80B27047036859
:10039400194201D1002070470120704730B40A4C43
:1003A400226840F6FE73834022EA03020B684D681C
:1003B4002B438D682B43C9680B4303FA00F01043A9
:1003C400206030BC704700BF0074004041B9084948
:1003D4000B68012202FA00F023EA0000086070476B
:1003E40003490B68012202FA00F0184308607047C1
:1003F4000074004049B909490B684FF4805202FA6D
:1004040000F023EA00000860704704490B684FF4C9
:10041400805202FA00F018430860704700740040EC
:10042400036823F0010303600023036043608360D7
:10043400C3600361212343613C4B98422DD03C4B64
:1004440098422ED03B4B984230D03B4B984232D00E
:100454003A4B984234D03A4B984235D0394B984273
:1004640036D0394B984237D0384B984239D0384B34
:1004740098423AD0374B98423CD0374B98423ED0C2
:10048400364B984240D0364B984241D0354B984237
:1004940042D0354B984243D070473D22103B9A607E
:1004A40070474FF47462283B9A6070474FF474129B
:1004B400403B9A6070474FF07462583B9A607047B3
:1004C4002A4A703BDA607047294A883BDA607047F1
:1004D400284AA03BDA6070474FF03D52B83BDA60DF
:1004E40070473D22103B9A6070474FF47462283B7A
:1004F4009A6070474FF47412403B9A6070474FF013
:100504007462583B9A607047184A703BDA607047CF
:10051400174A883BDA607047164AA03BDA60704796
:100524004FF03D52B83BDA60B6E700BF10600240BE
:1005340028600240406002405860024070600240FF
:1005440088600240A0600240B8600240106402402B
:1005540028640240406402405864024070640240CF
:1005640088640240A0640240B86402403D00002058
:10057400400F002000003D2010B40368134A1A40C5
:100584000B68CC6823434C6923438C692343CC69AF
:1005940023430C6A23434C6A23438C6A23434C6BE6
:1005A40023438C6B234313430360436923F0070302
:1005B400CA6A0C6B2243134343610B6943604B6863
:1005C40083608B68C36010BC704700BF3F801CF021
:1005D40021B9036823F0010303607047036843F003
:1005E40001030360704721B9036823F0200303600B
:1005F4007047036843F02003036070470A4B984236
:100604000AD8A3F20F4311F0005F07D121F0F021C3
:1006140021F0821199607047044BF4E721F0F02136
:1006240021F08211D96070470F64024000640240D7
:1006340011F0800F04D06AB1436943F08003436131
:10064400802906D05AB9036801F01E0123EA01018A
:1006540001607047436923F080034361F0E7036856
:1006640001F01E0119430160704700230F2B40D88D
:10067400F0B425E084682240826082684C79AC4002
:100684002243826044689FB20126BE4024EA0604E5
:10069400446044688A79BA4092B222434260C26894
:1006A4009CB266000324B44022EA0402C260C26819
:1006B400CC7904FA05F51543C56001330F2B16D820
:1006C40001229A400C68A243F7D104685D0003221A
:1006D400AA40D2431440046004680E79AE40344307
:1006E40004600C79013CE4B2012CD8D8C2E7F0BC18
:1006F400704770470369194201D1002070470120F7
:100704007047018370474183704730B401F0070399
:100714009B009A40C908083150F821400F2505FA7A
:1007240003F324EA030340F8213050F821301A433C
:1007340040F8212030BC704708B5154B984206D0CC
:10074400144B98420ED0144B984216D008BD012188
:100754004FF4001000F098F900214FF4001000F05D
:1007640093F908BD01214FF4800000F08DF90021B8
:100774004FF4800000F088F908BD01214FF4000017
:1007840000F082F900214FF4000000F07DF9DDE76C
:100794000054004000580040005C0040F0B585B0B3
:1007A40004460D468688B6B226F03F06B6B26846C1
:1007B40000F0E6F802982D4AA2FB0032920C97B2A0
:1007C4003E43A680218889B221F0010189B22180AB
:1007D4002B6827498B421FD85B00B0FBF3F39BB215
:1007E400032B00D8042301372784A38323889BB2D7
:1007F40043F00103238023889BB223F4816323F015
:100804000203AA8869890A4313432380AB892A898E
:100814001343238105B0F0BDEE884BF6FF718E4281
:100824001DD003EB830303EB8303B0FBF3F39BB211
:1008340043F48043C3F30B0109B943F0010343F4C8
:1008440000434FF4967102FB01F20A4981FB020155
:10085400D217C2EBA112013292B22284C5E703EB94
:100864004303B0FBF3F39BB2E4E700BF83DE1B4317
:10087400A0860100D34D621031B903889BB223F0E6
:1008840001039BB20380704703889BB243F00103CA
:100894000380704731B903889BB223F480739BB201
:1008A4000380704703889BB243F4807303807047CE
:1008B40031B903889BB223F400739BB20380704761
:1008C40003889BB243F400730380704722B901F09C
:1008D400FE0189B20182704741F00101F9E731B9A3
:1008E40003889BB223F480639BB203807047038820
:1008F4009BB243F480630380704701827047008A8F
:10090400C0B2704782B000230193009300900B0F94
:10091400019321F07F41019B4BB1009B1433009361
:10092400009B1B68194207D1002002B07047090CD4
:10093400009B18330093F3E70120F6E7014B18609E
:10094400704700BF00300040014B5860704700BF43
:1009540000300040014B9860704700BF00300040F9
:100964004AF6AA22014B1A60704700BF00300040CB
:100974004CF6CC42014B1A60704700BF0030004077
:1009840010B4284B9B6803F00C03042B22D0082BD3
:1009940023D013B1244B036001E0234B0360214CAB
:1009A400A368C3F303132149CB5CDAB20368D340D1
:1009B4004360A268C2F382228A5CD2B223FA02F2B2
:1009C4008260A268C2F342328A5CD2B2D340C3606E
:1009D40010BC7047164B0360E1E7124B5A685B6822
:1009E40003F03F0312F4800F12D0114AB2FBF3F26A
:1009F4000C4B5B68C3F3881303FB02F3094A526888
:100A0400C2F3014201325200B3FBF2F30360C6E7C2
:100A1400054AB2FBF3F2034B5B68C3F3881303FB91
:100A240002F3EBE7003802400024F4000000002049
:100A340040787D0129B9054A136B23EA000010634D
:100A44007047024A136B1843106370470038024022
:100A540029B9054A136C23EA000010647047024A5E
:100A6400136C1843106470470038024029B9054AD2
:100A7400536C23EA000050647047024A536C1843D5
:100A8400506470470038024029B9054A136A23EAC2
:100A9400000010627047024A136A184310627047DC
:100AA4000038024029B9054A536A23EA000050621B
:100AB4007047024A536A1843506270470038024034
:100AC4004309012B0CD0022B0DD0094B5B6F00F0B6
:100AD4001F0023FA00F010F0010F07D10020704727
:100AE400034B1B68F3E7024B1B6FF0E701207047D1
:100AF40000380240024A536F43F0807353677047D3
:100B04000038024008B501214FF40060FFF7CAFF26
:100B140000214FF40060FFF7C5FF08BD10B40A4977
:100B24004A6822F4FD4222F07F02037D8468234355
:100B340044682343C468234304682343006903438C
:100B440013434B6010BC7047002C0140014B1860EC
:100B5400704700BFA0802542014B1860704700BF5A
:100B6400002C0140024B186800F00300704700BFDE
:100B7400002C014010B4036808498B60CB6823F44F
:100B8400FF6323F00703426884682243C468224356
:100B9400006902431343CB6010BC7047002C014032
:100BA400014B1869C0B27047002C014082B0002389
:100BB4000193034B03440193019B186802B07047EF
:100BC400142C014010B4036808494B6243688B62DB
:100BD400CA6A22F0F7028368C46823430469234382
:100BE400406903431343CB6210BC7047002C01409F
:100BF400014BD3F880007047002C0140014B186072
:100C0400704700BF8C85254229B9054AD36B23EA76
:100C14000000D0637047024AD36B1843D063704717
:100C2400002C0140034B5B6B034201D10020704751
:100C340001207047002C0140014B9863704700BFAE
:100C4400002C0140034B5B6B034201D10020704731
:100C540001207047002C0140014B9863704700BF8E
:100C6400002C014003889BB21B4A904212D002F52B
:100C7400806290420ED0B0F1804F0BD0A2F580324A
:100C8400904207D002F58062904203D002F5806260
:100C9400904203D123F070034A8813430F4A9042D1
:100CA40008D002F58062904204D023F440739BB2D2
:100CB4000A89134303804B68C3620B880385064B80
:100CC400984206D003F58063984202D001238382C0
:100CD40070478B7A0386F9E700000140001000405A
:100CE4004FF0FF334360002303800381438083720A
:100CF4007047C162704731B903889BB223F0800307
:100D04009BB20380704703889BB243F08003038047
:100D1400704731B903889BB223F001039BB203806F
:100D2400704703889BB243F00103038070472AB9DC
:100D34008389C94389B219408181704783899BB2F1
:100D4400194381817047028A83890B40114202D082
:100D54001BB9002070470020704701207047C94329
:100D640089B20182704783889BB223F070039BB2DF
:100D7400838083889BB219438180704730B585B0E6
:100D840004460D46038A9BB223F44053CA88134396
:100D9400038283899BB223F4B05323F00C03898824
:100DA40028896A8901430A431343A381A38A9BB216
:100DB40023F44073AA891343A3826846FFF7E0FD36
:100DC400204B9C4228D003F580639C4224D0029B94
:100DD400A28912F4004F21D103EB830303EB8303B5
:100DE40029688900B3FBF1F1174BA3FB01235809D0
:100DF4000501642300FB1313A28912F4004F16D1DA
:100E04001B013233104AA2FB0323C3F343132B43C6
:100E14009BB2238105B030BD039BD9E703EB830369
:100E240003EB830329684900B3FBF1F1DCE7D90044
:100E34003231054AA2FB0131C1F3421245EA0203F1
:100E4400E6E700BF001001401F85EB5131B98389EB
:100E54009BB223F400539BB28381704783899BB276
:100E640043F4005383817047C1F3080181807047C4
:100E74008088C0F30800704710B4C1F3421401F035
:100E84001F01012303FA01F19C4209D0022C09D06D
:100E940014304AB9036823EA0101016010BC7047A9
:100EA4000C30F6E71030F4E7036819430160F5E706
:100EB4000388194201D1002070470120704710B403
:100EC400C1F3421201F01F040123A340012A0FD0F1
:100ED400022A11D0828A92B21340090A012202FA2C
:100EE40001F1028892B2114053B161B9002008E0C7
:100EF400828992B21340F0E7028A92B21340ECE77F
:100F0400002010BC70470120FBE7090A01238B4035
:100F14009BB2DB439BB203807047000030B58DB0B9
:100F240001210420FFF786FD03230A938DF82C305A
:100F340000248DF82F400AA91648FFF796FB0121DB
:100F44004FF48070FFF792FD06944FF440330793FB
:100F54000894099406A8FFF7ABF96846FFF79EF9D1
:100F640000948DF804408DF8054003940294049491
:100F740001258DF8145004F1804404F59034694639
:100F84002046FFF765F929462046FFF7A5F90DB07D
:100F940030BD00BF0008024010B50A4C00230122F6
:100FA40001462046FFF7A3F92046FFF7E8F902219E
:100FB4000448FFF7ECF90028F9D00248FFF7E4F9F8
:100FC40010BD00BF00200140F8B507460E460024BE
:100FD400254604E03846FFF7DFFF05440134B442F8
:100FE400F8D3B5FBF6F080B2F8BD000030B585B09B
:100FF40001212020FFF72CFD01A8FFF771FE032338
:10100400029343F21443ADF804300023ADF80C30DE
:10101400ADF806300E4D01A92846FFF723FE37230D
:101024008DF8003001248DF803400F238DF8013032
:101034008DF802306846FFF7D5F822462146284647
:10104400FFF775FE21462846FFF763FE05B030BD65
:101054000014004008B501212548FFF774FE00B9CB
:1010640008BD01212248FFF77AFE224B1B78002B92
:1010740030D0214B1B88214AD05C214B1B78002B9C
:101084002DD0A3F10902D2B2012A2CD9013B184177
:1010940000F0010000F030F9194A13780133DBB293
:1010A40013700A2BDCD9144A138801339BB21380C2
:1010B4000021134A1170134A12889342D0D90E4A60
:1010C40011800C4A117000F00BF904210E48FFF74F
:1010D4001AFBC5E7084A1380094A137008BD0020AB
:1010E40000F00AF9D8E7012000F006F9D4E700BFC0
:1010F4000014004008040020060400201000002012
:1011040004040020100200200000024010B5044630
:10111400FFF756F883B219339BB2184A1380B3F51C
:10112400007F03D94FF40072144B1A80002304E0AB
:101134000021134AD15401339BB2182BF8D906E08D
:10114400A3F11902A15C0E4AD15401339BB20B4A9C
:1011540012889342F4D3581C80B2094A0021D15416
:1011640002339BB21154D15400F074F80122054BA0
:101174001A7004210448FFF7C4FA10BD10020020BD
:1011840010000020080400200000024070B586B062
:1011940001210846FFF74EFC1025049503238DF822
:1011A400143000248DF81740274E0DEB050130460E
:1011B400FFF75BFA01212846FFF74AFC01A8FFF775
:1011C4008FFD0E230293ADF80440ADF80C40ADF84A
:1011D40006401E4D01A92846FFF744FD012128467B
:1011E400FFF789FD20212846FFF7BDFD0121284690
:1011F400FFF78FFD01214FF00050FFF729FC144940
:1012040004250D604C60CC602046FFF7C7F801212F
:101214002046FFF7DBF801210846FFF70BFC049595
:1012240001238DF814308DF816408DF815408DF893
:10123400174004A93046FFF718FA20213046FFF77B
:1012440062FA06B070BD00BF00000240001000400A
:10125400A40A002070B590B001214FF40010FFF7EC
:10126400E9FB1C4D00212846FFF7B2F92846FFF799
:10127400D7F84FF060630193174B0293174B039316
:101284004023049340F2E2230593002406944FF490
:10129400806307934FF4006308934FF4005309935A
:1012A4004FF480730A934FF400330B930C9401268C
:1012B4000D960E940F9401A92846FFF75DF9314667
:1012C4002846FFF785F931462046FFF793F810B01A
:1012D40070BD00BF88600240087400406060000870
:1012E40008B500210348FFF773F900210846FFF70A
:1012F40081F808BD8860024008B520B9102104486F
:10130400FFF7F7FC08BD0E210148FFF7F2FC08BD0A
:10131400001000407047000070B5064600246FF0CE
:10132400620500223146094803F070F820B10578BF
:1013340043781B021BB21D430134E4B215F1630F61
:1013440001D1042CEDD9284670BD00BF00540040E3
:10135400002306E0044A52F8232040F823200133F6
:10136400DBB2062BF6D970470C04002010B53C4CB8
:10137400A022EE21204603F077F9EE21204602F068
:10138400DBFF28B10178437843EA0123354A13602F
:10139400334CA222EE21204603F066F9EE212046CA
:1013A40002F0CAFF28B10178437843EA01232D4AA9
:1013B40053602B4CA422EE21204603F055F9EE2174
:1013C400204602F0B9FF28B10178437843EA0123AB
:1013D400244A9360224CA622EE21204603F044F9CD
:1013E400EE21204602F0A8FF28B10178437843EAB1
:1013F40001231C4AD3601A4CA822EE21204603F094
:1014040033F9EE21204602F097FF28B101784378A2
:1014140043EA0123134A1361114CAA22EE21204608
:1014240003F022F9EE21204602F086FF28B101786C
:10143400437843EA01230B4A5361094CAC22EE2161
:10144400204603F011F9EE21204602F075FF28B181
:101454000178437843EA0123024A936110BD00BF37
:10146400005400400C0400202DE9F04F85B00546DF
:101474008A464822EE21904803F0F6F800230293AE
:1014840002E0029B01330293029A4FF6FE739A42E2
:10149400F7DD894C0022EE21204603F0E5F8EE2129
:1014A400204603F063F870B102784478240244EAD9
:1014B400024483781C435822EE217F4803F0D4F879
:1014C4000023039304E00024F5E7039B0133039313
:1014D400039A4FF6FE739A42F7DD774E0022EE210F
:1014E400304603F0C1F8EE21304603F03FF80028FF
:1014F40000F0898001784278120242EA014283783E
:101504001A436E4B5969A2EB01224FEAE27C9B69B4
:10151400A2FB030103FB0C1106460F46002871F1E0
:10152400000372DB4FEAD65E4EEA472E0EF5FA6EE2
:10153400624B99684FEAD1394FEA41481869C71795
:1015440002FB07F300FB0C33A2FB0001194406461F
:101554000F46002871F100035CDBB30943EA87609E
:10156400B91118EB000649EB0107CDE90067534BAD
:1015740059684FEA11494FEA0148D868C71702FB76
:1015840007F300FB0C33A2FB0001194406460F4687
:10159400002871F1000342DBF30943EA4760F911C3
:1015A40010EB080041EB0901BEF5FA6F44DA02FBC7
:1015B4000CF6A2FB022303EB460316461F46002A41
:1015C40073F1000C30DBF30F43EA47035E42AEF5E0
:1015D400FA63C3EB031203EB820202FB03F2002A59
:1015E40028DB12115F0007FB03F3354FBE4526DAF3
:1015F4000EF2DC57C7EB071C0CFB07224FEAC70CA3
:101604000CFB07331BE000227BE72E4E0027361825
:101614004F4187E710F13F0641F100079DE710F1C4
:101624007F0641F10007B7E76FF000460027B618C0
:101634005F41C8E70F32D4E700231A461E46AEEBDB
:10164400060EDDE90089B8EB020869EBE279C01AFD
:1016540061EBE371A4FB002304FB013316461F4630
:10166400002A73F100011CDB730D43EAC7207915CE
:10167400B0EB080061EB090106460F46002871F142
:10168400000313DBF30B43EA47430F4A82FB0312C5
:10169400DB17C3EB62132B80AAF800E005B0BDE8AA
:1016A400F08F0A4E0027B6185F41DDE747F6FF7654
:1016B400002736184F41E5E7005400400C04002091
:1016C40024FAFFFFFFFF7F001F85EB51FFFF1F0080
:1016D4000023C0F80031C0F804317047D0F800216D
:1016E400D0F804319A4207D05A1CC0F80421DBB266
:1016F400C35C0B700020704701207047D0F80031A4
:10170400D0F804219A1AFF2A06D85A1CC0F80021DE
:10171400DBB2C154022070470020704770B588B016
:1017240001210846FFF786F901211020FFF79EF9F1
:10173400254D072209212846FEF7E7FF07220A2143
:101744002846FEF7E2FF02238DF81C3000248DF8B2
:101754001E404FF4C06206928DF81F408DF81D3074
:1017640006A92846FEF781FF4FF4E1330293ADF852
:101774000C40ADF80E40ADF81040ADF814400C2309
:10178400ADF81230A5F5704502A92846FFF7F6FA20
:1017940001212846FFF75AFB25238DF80430012642
:1017A4008DF807608DF805408DF8064001A8FEF716
:1017B40019FD324640F225512846FFF75DFB0348E8
:1017C400FFF786FF08B070BD00000240B40A002095
:1017D40008B501460448FFF747FB40210248FFF7DC
:1017E40067FB0028F9D008BD0010014010B504467D
:1017F40002E00134FFF7ECFF20780028F9D110BD96
:101804000378002B53D010B59EB00446284903F04A
:1018140003FFF8B12749204603F0FEFEF0B1264944
:10182400204603F0F9FEF0B12449204603F0F4FE0B
:10183400E8B12349204603F0EFFE002830D02149C7
:10184400204603F0E9FE00282DD11F4B00221A7018
:101854005A7006E01D48FFF7C9FF02E001221A4B47
:101864001A701EB010BD0122174B5A70F9E707A871
:10187400FFF76EFD0D9B05930C9B04930B9B039349
:101884000A9B0293099B0193089B0093079B104AB0
:1018940040210EA803F08CFE0EA8FFF7A7FFE0E797
:1018A40003F086FBDDE70B48FFF7A0FFD9E770479D
:1018B40024660008346600083C6600084466000894
:1018C4008C66000894660008600C00202C660008F2
:1018D4004C6600089C66000808B540F2255107488C
:1018E400FFF7EDFA012800D008BD0448FFF7C0FA5D
:1018F400C1B20348FFF702FFF6E700BF0010014042
:10190400B40A0020F0B583B002A9002301F8013D18
:101914001348FFF7E3FE00BB04469DF807300D2B88
:101924000ED0202B0CD00A2B0AD00E490A78501C5A
:10193400087002F07F020C498B54204603B0F0BDBE
:10194400084F3B785A1C3A70074D0026EE5428463F
:10195400FFF756FF3E702E70EFE70124EDE700BF5E
:10196400B40A0020A80400202804002008B5012897
:101974000AD028B102280DD101F0B2FA60B908BD2D
:1019840002F0DCF850B908BD02F06DFC08B101208A
:1019940008BD08BD012008BD012008BD012008BD07
:1019A40008B501280ED038B1022811D101F09BFAF4
:1019B40008B1032008BD08BD01F06EFD08B1032085
:1019C40008BD08BD02F052FC08B1032008BD08BDE3
:1019D400012008BD10B50C46114601280ED038B1BF
:1019E400022813D11A46204601F080FA80B910BDAE
:1019F4001A46204602F016FC60B910BD1A4620466D
:101A040002F037FC08B1012010BD10BD042010BD48
:101A1400012010BD012010BD10B50C46114601284F
:101A24000ED038B1022813D11A46204601F061FACB
:101A340080B910BD1A46204602F024FB60B910BDDF
:101A44001A46204602F018FC08B1012010BD10BD52
:101A5400042010BD012010BD012010BD00487047B6
:101A6400C0B3493408B50B4601280ED038B102285A
:101A740013D11146184601F03FFA80B908BD11464A
:101A8400184601F0D1FC60B908BD1146184602F0B1
:101A9400F6FB08B1012008BD08BD042008BD0120E3
:101AA40008BD012008BD04E00A780270013101304C
:101AB4001A46531E002AF7D1704702E00170013024
:101AC4001A46531E002AF9D1704770B40346002009
:101AD40001E029463346541E32B15E1C18784D1C71
:101AE4000B782246C01AF4D070BC704700E0013075
:101AF40003780BB18B42FAD118467047CA7E8B7EAD
:101B040043EA02230278032A01D018467047487D2D
:101B14000A7D42EA002243EA0243F6E78176C1F3F2
:101B24000723C376090C0175090A41757047000043
:101B34002DE9F84F89460C6800E0013423782F2BF7
:101B4400FBD05C2BF9D0D0F818A00B2220215046F2
:101B5400FFF7B3FF002633460827B04603F1010B15
:101B6400E55C202D3AD92F2D38D05C2D36D02E2D82
:101B740001D0B7420DD8082F5FD12E2D02D00620F8
:101B8400BDE8F88F4FEA88085FFA88F83E460B27CD
:101B940012E015F0800F11D129462B48FFF7A6FF5C
:101BA40000284DD1A5F14103DBB2192B0CD848F024
:101BB40002080AF8065001365B46CFE748F00308EE
:101BC400803D224B5D5DE7E7A5F16103DBB2192B94
:101BD400EFD848F00108203DEDB2EAE75C44C9F8CB
:101BE4000040202D04D8042326B90620BDE8F88F30
:101BF4000023F9E79AF80020E52A0FD0082F11D026
:101C040008F00302012A12D008F00C08B8F1040FFE
:101C140010D08AF80B300020BDE8F88F05228AF82E
:101C24000020EBE74FEA88085FFA88F8E8E743F01A
:101C34001003E9E743F00803EBE70620BDE8F88F5B
:101C44000620BDE8F88F00BF34670008B4660008BA
:101C540010B5044601230A4600F134014078FFF729
:101C6400B9FE08B1032010BD94F8332294F832323F
:101C740043EA02231BB2184A934201D0022010BD4A
:101C840094F86D2094F86C301B0443EA026394F8D2
:101C94006B2043EA022394F86A20134323F07F4322
:101CA4000E4A934215D094F8892094F888301B0486
:101CB40043EA026394F8872043EA022394F88620D7
:101CC400134323F07F43054A934201D0012010BD02
:101CD40010BD002010BD00BF55AAFFFF46415400AF
:101CE400F8B503790BB90020F8BD0446066B00F182
:101CF40034070123324639464078FFF78DFEB8B9E0
:101D040000232371636A9E4214D3E26913449E4202
:101D140012D2E57808E0E3691E44012332463946CD
:101D24006078FFF779FE013D012DF4D80020F8BD5D
:101D34000120F8BD0020F8BD0020F8BD70B5036B8C
:101D44008B4212D00D460446FFF7CAFF064610B177
:101D54000126304670BD01232A4604F1340160781F
:101D6400FFF738FE18B92563F3E70026F1E70126EB
:101D7400EFE7A0B108B503689BB1197809B9092048
:101D840008BDD9888288914201D0092008BD5878BD
:101D9400FFF706FE10F0010F05D0032008BD09204F
:101DA4007047092008BD002008BD0000F8B503688D
:101DB4001C78303C092C07D85D783A2D01D00024DA
:101DC40003E00233036000E0002400230B600CB145
:101DD4000B20F8BDBF4B53F82450002D00F0648154
:101DE40016460D602B787BB16878FFF7D9FD10F0AB
:101DF400010F09D1002E00F0598110F0040F01D019
:101E04000A20F8BD0020F8BD00232B70E0B26870F2
:101E1400FFF7ACFD10F0010F01D00320F8BD26B18F
:101E240010F0040F01D00A20F8BD00212846FFF766
:101E34000FFF012806D00024032800F03981C8B11F
:101E44000D20F8BD95F8F6310BB90024F4E795F8A8
:101E5400FD3195F8FC41240444EA036495F8FB3110
:101E640044EA032495F8FA311C4321462846FFF737
:101E7400EFFEE1E795F8402095F83F3043EA02236E
:101E84001BB2B3F5007F01D00D20F8BD95F84B309F
:101E940095F84A2052EA03220DD195F85B3095F863
:101EA4005A20120442EA036295F8593042EA0322A6
:101EB40095F858301A43EA6195F84410E9704B1EBE
:101EC400DBB2012B01D90D20F8BD02FB01F195F81D
:101ED4004160AE70002E00F0ED80731E1E4201D0F2
:101EE4000D20F8BD95F8463095F8450040EA0320EA
:101EF400288110F00F0F40F0DF8095F8487095F8B6
:101F0400473053EA07230DD195F8577095F85630AA
:101F14001B0443EA076395F8557043EA072395F8D1
:101F240054703B4395F843E095F8427057EA0E2706
:101F340000F0C48001EB070E0EEB101E7345C0F0D9
:101F4400BF80A3EB0E03B3FBF6F3002B00F0BA80C3
:101F540040F6F576B34200F2978001264FF6F57C01
:101F6400634500D903260233AB612C6227446F62B8
:101F7400A644C5F82CE0032E40F08880002840F0E9
:101F8400A38095F8630095F86210090441EA0061A2
:101F940095F8610041EA002195F860000143A962C7
:101FA4009B0003F2FF13B2EB532FC0F091804FF06C
:101FB400FF332B610023EB60032E5AD16B7195F82C
:101FC400653095F8642042EA032222446A610123C1
:101FD40005F134016878FFF7FDFC002849D195F834
:101FE400332295F8323243EA02231BB23A4A93422F
:101FF4003FD195F8372095F836301B0443EA026345
:1020040095F8352043EA022395F834201343334AE4
:1020140093422ED195F81B2295F81A321B0443EAF9
:10202400026395F8192243EA022395F81822134310
:102034002B4A93421DD195F8232295F822321B0492
:1020440043EA026395F8212243EA022395F8202209
:102054001343EB6095F81F2295F81E321B0443EAE4
:10206400026395F81D2243EA022395F81C221343C8
:102074002B612E701B4A138801339BB21380EB80B3
:10208400002028632871F8BD022667E7F0B13944BF
:10209400A962022E01D15B0083E703EB430103F045
:1020A400010303EB51037CE70C20F8BD0020F8BDCD
:1020B4000120F8BD0D20F8BD0D20F8BD0D20F8BDA0
:1020C4000D20F8BD0D20F8BD0D20F8BD0D20F8BD84
:1020D4000D20F8BDAC04002055AAFFFF5252614107
:1020E40072724161B0040020F8B50446FFF7F8FDB0
:1020F400054648B92378032B08D00022114660789E
:10210400FFF7B0FC00B101252846F8BD6379002B28
:10211400F3D00027276304F134064FF400723946E4
:102124003046FFF7CAFC552384F83232AA2384F8D8
:102134003332522384F8343084F83530612384F800
:102144003630412284F83720722184F8181284F83A
:10215400191284F81A2284F81B32236984F81C3279
:10216400C3F3072284F81D22C3F3074284F81E2216
:102174001B0E84F81F32E36884F82032C3F307226D
:1021840084F82122C3F3074284F822221B0E84F828
:1021940023320123626931466078FFF73DFC6771A1
:1021A400ABE702398369023B994204D28378C06A5F
:1021B40003FB010070470020704701296ED9F8B570
:1021C400836999426CD20C4606460378022B30D0C0
:1021D400032B44D0012B02D04FF0FF30F8BD01EBAC
:1021E4005107416A01EB5721FFF7A8FD10B14FF0E9
:1021F400FF30F8BDC7F30803334493F83450013774
:10220400716A01EB57213046FFF798FD10B14FF08A
:10221400FF30F8BDC7F30807F01990F8340045EA19
:10222400002014F0010F01D00009F8BDC0F30B0029
:10223400F8BD416A01EB1421FFF780FD10B14FF0A6
:10224400FF30F8BD610001F4FF7101F13003334444
:102254005B79701890F8340040EA0320F8BD416AB5
:1022640001EBD411FFF76AFD10B14FF0FF30F8BD58
:10227400A00000F4FE7000F130023244D179937969
:1022840004321B0443EA0163527843EA02233044D4
:1022940090F83400184320F07040F8BD01207047D6
:1022A4000120F8BD70B505460C46C180816801293E
:1022B4003BD003689A69914201D3022070BD11B9E1
:1022C4001A78032A06D0A1B9E9601A89944203D383
:1022D400022070BD996AF6E79B6A03EB14132B6125
:1022E4002B68343304F00F0403EB44146C610020B6
:1022F40070BD9E783601B4420FD32868FFF75DFFA6
:102304000146B0F1FF3F12D0012812D92B689B6916
:10231400984210D2A41BA4B2EDE7E9602868FFF745
:1023240040FF00EB14102861DAE7022070BD0120A1
:1023340070BD022070BD022070BDF8B5012940F2C5
:1023440087808369994201D3022382E016460C46B2
:1023540005460378022B44D0032B57D0012B03D01E
:10236400022301222A7174E001EB5107416A01EB57
:102374005721FFF7E3FC03460028F2D1C7F3080214
:1023840014F0010421D0AB1893F9343003F00F0397
:10239400310101F47F610B43DBB22A4482F834300B
:1023A400013701232B71696A01EB57212846FFF796
:1023B400C5FC03460028D4D1C7F308073CB1C6F3D3
:1023C40007122F4487F83420CBE7F3B2E5E7EA1984
:1023D40092F9342022F00F02C6F303263243D2B21C
:1023E400EFE7416A01EB1421FFF7A8FC034600283C
:1023F400B7D1610001F4FF7101F130002844294490
:1024040081F83460C6F307224271AAE7416A01EBFE
:10241400D411FFF793FC03460028A2D1A10001F4D4
:10242400FE7101F130002844C4798279120442EA31
:102434000462294402F07042324381F83420C2F32A
:1024440007214171C2F307418171120EC27188E7FD
:1024540002231846F8BDF8B505460F4631B9C668DB
:1024640076B183699E420CD301260AE0FFF7A5FEEC
:10247400034601283FD9AA69904241D33E4600E071
:10248400012634460CE021462846FFF796FE034613
:1024940070B1B0F1FF3F33D0012831D0B4422ED017
:1024A4000134AB699C42EED3012E26D90224EAE71B
:1024B4006FF0704221462846FFF73FFF034600B9FC
:1024C4005FB98BB9EC602B69B3F1FF3F1AD0013BC4
:1024D4002B6101236B71234612E0224639462846BC
:1024E400FFF72BFF0346ECE7012B01D0012307E0A4
:1024F4004FF0FF3304E0012302E0002300E0002357
:102504001846F8BD2346FBE72DE9F041C4880134A1
:10251400A4B214B90420BDE8F081036913B90420FE
:10252400BDE8F0810E46054614F00F0710D10133C3
:102534000361C16831B903681B899C4208D3042034
:10254400BDE8F08100688378013B13EA141308D0D6
:10255400EC802B68343303EB47136B610020BDE838
:10256400F081FFF72AFE8046012846D9B0F1FF3FEB
:1025740046D028688369984537D316B90420BDE846
:10258400F081E968FFF767FF804610B90720BDE8CE
:10259400F081012837D0B0F1FF3F37D02868FFF72A
:1025A4009FFB002835D128684FF400720021343095
:1025B400FFF783FA2E6841463046FFF7F2FD306399
:1025C40000262B689A7896420CD201221A71286848
:1025D400FFF786FB00BB2A68136B013313630136D4
:1025E400F6B2EEE71A6B921B1A63C5F80C804146EB
:1025F4002868FFF7D6FD2861AAE70220BDE8F0812C
:102604000120BDE8F0810220BDE8F0810120BDE891
:10261400F0810120BDE8F0810120BDE8F08138B5EA
:1026240004460021FFF73EFE054640B1284638BD6A
:1026340000212046FFF768FF05460028F6D12169EE
:102644002068FFF77BFB05460028EFD1606903781B
:1026540053B1C37A13F0080FEAD10B22A169FFF733
:1026640034FA0028E4D1E1E70425DFE710B582B0AD
:10267400044601910B782F2B21D05C2B1FD0002313
:10268400A360019B1B781F2B1CD901A92046FFF7CF
:102694004FFA0346E8B92046FFF7C1FFA369DA7A87
:1026A4000346C8B912F0040F13D16169CB7A13F051
:1026B400100F18D02068FFF721FAA060E5E7013178
:1026C4000191DCE700212046FFF7ECFD03460022E0
:1026D4006261184602B010BD0428FAD112F0040F4A
:1026E400F7D10523F5E70523F3E770B504460E4655
:1026F4000021FFF7D7FD0246C0B9002508E00135E7
:10270400B54213D001212046FFF7FEFE024668B908
:1027140021692068FFF712FB024638B963691B7808
:10272400E52BECD0002BEAD00025EBE7104670BD7A
:1027340038B505460121FFF7D8FF044608B1204605
:1027440038BD29692868FFF7F9FA04460028F6D14C
:10275400202200216869FFF7B0F90B22A969686992
:10276400FFF7A1F92B6801221A71E8E7F8B50129EE
:1027740027D904460D468369994201D3022721E0F3
:10278400002700E03546A3699D421BD22946204616
:10279400FFF713FD0646A8B1012815D0B0F1FF3F9D
:1027A40014D0002229462046FFF7C7FD074648B942
:1027B4002369B3F1FF3FE5D0013323610123637142
:1027C400E0E702273846F8BD0227FBE70127F9E7CF
:1027D400034608B10B207047064A52F8202002B184
:1027E400107009B100220A70024A42F82310002036
:1027F400704700BFAC0400202DE9F0438DB0019177
:10280400002800F0A180044615460023036002F06E
:102814001F0802F01E0205A901A8FFF7C7FA064621
:10282400002840F0928002AB0B93019905A8FFF7B2
:102834001DFF0A9F064608B9002F33D015F01C0F60
:1028440072D0002E35D0042E2ED048F008080A9FEE
:1028540016B918F0080F37D146B918F0080F01D08F
:1028640048F02008059B1B6BE3612762002E6CD1A6
:1028740084F80680059D39462846FFF73FF9206114
:10288400FA7FBB7F1B0443EA02637A7F43EA022395
:102894003A7F1343E3600023A360A3612560EB88C0
:1028A400A38052E00626C9E705A8FFF741FF0646C4
:1028B400CBE7FB7A13F0110F04D115F0040FC7D046
:1028C4000826C5E70726C3E7FFF7C8F8B873C0F3BF
:1028D4000723FB73C0F307433B74000E7874002591
:1028E400FD723D777D77BD77FD7739460598FFF713
:1028F40005F9814629463846FFF710F90598012362
:102904000371B9F1000FA7D0056B4946FFF72EFFFD
:1029140006460028A0D1059809F1FF33C360294673
:10292400FFF70CFA064697E7002E95D1FB7A13F0D1
:10293400100F07D115F0020F8ED013F0010F8BD0BA
:10294400072689E7042687E7092630460DB0BDE847
:10295400F0832DE9F04F83B0044688461646994625
:102964000023C9F80030FFF704FA0190002840F072
:10297400DE80A37913F0800F40F0D78013F0020FAC
:1029840002D107230193D2E0E368F34270D3002617
:102994006EE00021FFF75FFD034620617CE0616982
:1029A400FFF759FD034677E0A37963F07F03A37132
:1029B40002230193BBE0A37963F07F03A371012396
:1029C4000193B4E0214651F8240B0123A269407815
:1029D400FFF722F820B9A37923F04003A37167E03D
:1029E400A37963F07F03A371012301939FE0A3798B
:1029F40063F07F03A3710223019398E0A37963F04A
:102A04007F03A3710123019391E04FF4007208EB5B
:102A1400412104F12400FFF746F8A37923F0400391
:102A2400A37165E0A3699B4503D0A268E3689A4259
:102A340060D3C4F818B0A068C0F30800C0F50075EE
:102A4400AE4200D23546203020442A464146043066
:102A5400FFF729F8A37943F04003A371A844A368BE
:102A64002B44A360D9F800302B44C9F80030761BFE
:102A7400002E50D0A368C3F30802002ADBD12068DB
:102A84008778013FFFB217EA53270DD1002B86D177
:102A94002369002B3FF47DAF002B3CD0012B83D066
:102AA400B3F1FF3F87D06361A37913F0400F89D15D
:102AB400D4F800A061695046FFF773FB83460028F1
:102AC40095D0BB44750AADD07B199AF80220934285
:102AD40000D9D51BEBB25A4641469AF80100FEF7DD
:102AE4009BFF00288AD1A169A1EB0B018D428CD8F0
:102AF4006D02B3E701235A4604F124019AF8010058
:102B0400FEF768FF002894D0A37963F07F03A371D4
:102B1400012301930BE0A368E268934200D9E360C8
:102B2400A37943F02003A37101E0022301930198E8
:102B340003B0BDE8F08F38B50446FFF71AF9034631
:102B4400D0B9A27912F0200F16D012F0400F0DD098
:102B5400214651F8240B0123A2694078FEF75CFF5B
:102B6400002837D1A37923F04003A371E1692068D9
:102B7400FFF7E4F8034608B1184638BD256AEB7A36
:102B840043F02003EB72237B2B77A3891B0A6B771B
:102B9400A37BAB77E37BEB7721692846FEF7BEFF87
:102BA400FEF75CFFA875C0F30723EB75C0F307437A
:102BB4002B76000E68760023AB74EB74A37923F0B4
:102BC4002003A371236801221A712068FFF78CFA8D
:102BD4000346D1E70123CFE710B50446FFF7ABFF67
:102BE400034608B900222260184610BD2DE9F041C1
:102BF40004460D46FFF7BDF88046002840F0C68025
:102C0400A37913F0800F40F0BF80E268AA4203D298
:102C140013F0020F00D11546A6680023A360CDB1BE
:102C2400206887787F026EB16B1EB3FBF7F3013E19
:102C3400B6FBF7F2934205D37B421E40A660AE1B5F
:102C4400656905E02369002B31D063612E461D467A
:102C5400002D58D1A368C3F30803F3B1A2699542C8
:102C64001BD0A37913F0400F0CD0214651F8240B4C
:102C740001234078FEF7D0FE002877D1A37923F012
:102C84004003A371214651F8240B01232A464078BE
:102C9400FEF7A0FE002870D1A561A368E268934204
:102CA40074D9E360A37943F02003A3716EE000219B
:102CB400FFF7D1FB0346012804D0B0F1FF3F08D051
:102CC4002061C2E7A37963F07F03A3714FF0020888
:102CD4005CE0A37963F07F03A3714FF0010855E032
:102CE40029462068FFF769FA0546B5F1FF3F2AD067
:102CF400012D2FD923689B699D422BD26561A3685E
:102D04003B44A360F61BBE420BD9A37913F0020F18
:102D1400E6D029462068FFF79EFB05460028E4D14B
:102D24003E46A3683344A360C6F30803E3B12946CF
:102D34002068FFF736FAA0B9A37963F07F03A37183
:102D44004FF0020822E0A37963F07F03A3714FF0F0
:102D540001081BE0A37963F07F03A3714FF002081D
:102D640014E000EB562575E7002573E7A37963F0BB
:102D74007F03A3714FF0010808E0A37963F07F0398
:102D8400A3714FF0010801E04FF002084046BDE88E
:102D9400F0812DE9F04782B002AB43F8040D894677
:102DA4001446002221461846FFF700F8256880469D
:102DB40000285DD12B69AC69A21E934207D92F78F4
:102DC400012F07D0696A00221046164632E0C9F87E
:102DD40000304DE00224002603E00134AB699C423C
:102DE40041D221462846FFF7E8F9B0F1FF3F38D039
:102DF400012841D00028F0D10136EEE701F1010AA3
:102E04002846FEF79BFF804668BB05F13402514615
:102E14004FF4007010E092F801E0137843EA0E23B7
:102E24001BB203B901360232023801E0043204381D
:102E3400013C18D00028E1D0022FECD092F803E036
:102E440093781B0443EA0E6392F801E043EA0E23ED
:102E540092F800E043EA0E0333F07043E6D1013602
:102E6400E4E74FF001082E61032F08D0C9F8006091
:102E7400404602B0BDE8F0874FF00208F3E70123B3
:102E84006B71F3E730B583B004460D460A280DD0C4
:102E94008DF8004001AB012269462846FFF759FD31
:102EA400019B012B06D1012003B030BD0D20FFF79B
:102EB400E9FFEDE74FF0FF30F6E770B504460E4644
:102EC4000025207848B13146FFF7DCFFB0F1FF3F21
:102ED40002D001340135F4E70546284670BD704739
:102EE4004FF0FF3070474FF0FF3070474FF0FF3026
:102EF40070474FF0FF3070474FF0FF30704710B508
:102F040082B04FF4C060FDF763F931238DF80430CB
:102F140000238DF805308DF8063001248DF8074024
:102F240001A8FDF75FF93B238DF804308DF80540C7
:102F340001A8FDF757F902B010BD10B54FF4803465
:102F440000E0013C24B18020FDF76CFE0028F8D09D
:102F54000CB9032010BD40F2FF50FDF76DFE0020B8
:102F640010BD000008B5104B5A6B4FF4803302E0DB
:102F7400013B0D4A526B12F0450F01D1002BF7D1E2
:102F840013B112F0040F04D00420FDF755FE032002
:102F940008BD12F0400F01D1002008BD4020FDF70C
:102FA4004BFE002008BD00BF002C014008B50B4BB0
:102FB4005B6B01E0094B5B6B13F0450FFAD013F028
:102FC400040F04D00420FDF737FE032008BD40F2AF
:102FD400FF50FDF731FE002008BD00BF002C01406A
:102FE40008B50F4B5B6B01E00D4B5B6B13F0450FAA
:102FF400FAD013F0040F08D113F0010F0AD140F2F4
:10300400FF50FDF719FE002008BD0420FDF714FE53
:10301400032008BD0120FDF70FFE012008BD00BFFD
:10302400002C014010B50446454B5B6B01E0444B5A
:103034005B6B13F0450FFAD013F0040F08D113F0B3
:10304400010F0AD1FDF7ACFDA0420BD0102010BD3A
:103054000420FDF7F1FD032010BD0120FDF7ECFD78
:10306400012010BD40F2FF50FDF7E6FD0020FDF702
:103074009DFD344B0340002B3FD000283FDB10F074
:10308400804F01D0092010BD10F0005F01D00A204C
:1030940010BD10F0805F01D00B2010BD10F0006F48
:1030A4002FD110F0806F2ED110F0807F2DD110F42D
:1030B400000F2CD110F4800F2BD110F4001F2AD153
:1030C40010F4801F29D110F4002F28D110F4802F80
:1030D40027D110F4003F26D110F4803F25D110F4FD
:1030E400004F24D110F4804F23D110F4005F22D17B
:1030F40010F0080F21D01A2010BD002010BD1C2094
:1031040010BD0C2010BD0D2010BD0E2010BD0F20D1
:1031140010BD102010BD112010BD122010BD1320B1
:1031240010BD142010BD152010BD162010BD172091
:1031340010BD182010BD192010BD002010BD00BF07
:10314400002C014008E0FFFD38B504460D461E4B37
:103154005B6B01E01C4B5B6B13F0450FFAD013F073
:10316400040F08D113F0010F0AD1FDF719FDA04295
:103174000BD0102038BD0420FDF75EFD032038BDC0
:103184000120FDF759FD012038BD40F2FF50FDF745
:1031940053FD0020FDF70AFD10F4604F04D010F435
:1031A400005F05D0132038BD000C2880002038BDF6
:1031B40010F4804F01D0102038BD10F4004F01D01E
:1031C4000F2038BD002038BD002C014070B582B0FE
:1031D4000D460023009301935248082202601024F4
:1031E400446040228260C3604FF480630361FDF752
:1031F400C1FC2046FFF716FF044610B1204602B07A
:1032040070BD494B1B681B04464803603724446067
:10321400402383600023C3604FF480630361FDF7A0
:10322400A9FC2046FFF7FEFE04460028E6D13F48ED
:103234004FF0FF330360082343603023836002238D
:10324400C3600024046101234361FDF7BBFC3548DE
:1032540004603326466040238360C4604FF4806377
:103264000361FDF787FC3046FFF7DCFE04460028C7
:10327400C4D100262E4B5A6B40F22A631A420BD15A
:103284004FF40010FDF7CEFC0028F3D0FDF7B0FC9E
:103294004DF826000136EDE70820FDF7C3FC20B108
:1032A4000820FDF7C9FC0424A8E70220FDF7BAFCB6
:1032B40020B10220FDF7C0FC02249FE72020FDF787
:1032C400B1FC20B12020FDF7B7FC062496E74FF4AB
:1032D4000070FDF7A7FC28B14FF40070FDF7ACFCBB
:1032E40007248BE740F2FF50FDF7A6FC009A130277
:1032F40003F47F0343EA0263110A01F47F410B43A1
:1033040043EA12636B60019A130203F47F0343EAF6
:103314000263110A01F47F410B4343EA12632B60F9
:103324006CE700BFC00B0020DC040020480C002028
:10333400002C014010B582B004460020009001909A
:10334400FDF734FC10F0007F03D00E23184602B0C2
:1033540010BD6946324B1888FFF738FF0346002832
:10336400F4D1012C05D0019B13F4803F30D12523E7
:10337400ECE7019B13F4802F01D12523E6E7284BCA
:103384001B681B0427480360372444604023836080
:103394000023C3604FF480630361FDF7EBFB204619
:1033A400FFF740FE03460028D0D11E4802230360E5
:1033B40006244460402383600023C3604FF4806389
:1033C4000361FDF7D7FB2046FFF72CFE0346BDE75C
:1033D400134B1B681B0413480360372444604023C9
:1033E40083600023C3604FF480630361FDF7C2FB75
:1033F4002046FFF717FE03460028A7D109480023FB
:1034040003600624446040228260C3604FF48063FA
:103414000361FDF7AFFB2046FFF704FE034695E783
:10342400DC040020C00B0020022809D003280BD0A4
:10343400012801D0002070474FF400330B60F9E7F6
:103444004FF400730B80F5E720230B60F2E70000D4
:1034540000B583B001238DF807304FF4807106481E
:10346400FDF748F910B100238DF807309DF80700E7
:1034740003B05DF804FB00BF0000024000B583B058
:1034840000238DF80730FFF7E3FF8DF807009DF860
:10349400070003B05DF804FB08B5FFF7D9FF012866
:1034A40001D1002008BD4FF0FF3008BD70B582B0D7
:1034B40000248DF807406348762303750460446054
:1034C4008460C4600461FDF729FB0320FDF744FB1D
:1034D4000120FDF73BFB5C48046044608460C460E9
:1034E4004FF480630361FDF745FBFFF726FD8DF87C
:1034F40007009DF8073023B19DF80700C0B202B061
:1035040070BD51484FF4D5730360082343604023D2
:1035140083600023C3604FF480630361FDF72AFBDB
:10352400FFF720FD8DF807009DF80730EBB9012265
:10353400464B1A604FF0804643480023036037240B
:10354400446040228260C3604FF480630361FDF7EE
:1035540011FB2046FFF766FD8DF807009DF8073044
:10356400F3B19DF80700C0B2C9E7374800260660EA
:103574003724446040238360C6604FF48063036152
:10358400FDF7F8FA2046FFF74DFD8DF80700D3E765
:103594009DF80700C0B2B2E79DF80700C0B2AEE7DD
:1035A400002004460246002839D14FF6FE739C429F
:1035B40035D82548002303603725456040228260C2
:1035C400C3604FF480630361FDF7D4FA2846FFF724
:1035D40029FD8DF807009DF80730002BD8D146F05F
:1035E400004343F4801318480360292343604023B5
:1035F40083600023C3604FF480630361FDF7BAFA6C
:10360400FFF7D4FC8DF807009DF80730002BC3D1D9
:103614000020FDF7CBFA0246C00F0134C3E74FF692
:10362400FE739C4206D812F0804F9AD00222074BB8
:103634001A6096E71B238DF807309DF80700C0B287
:103644005DE700BF300C0020C00B0020D404002034
:1036540030B583B00123ADF80630FDF783FA18B90D
:103664002524204603B030BD384B1B68042B21D0E1
:1036740037480023036002224260C0228260C36094
:103684004FF480630361FDF775FAFFF7A9FC044664
:103694000028E6D1FDF78AFA2E4C20600420FDF7BD
:1036A40085FA60600820FDF781FAA0600C20FDF720
:1036B4007DFAE060254B1B68012B2FD9062B2DD0FA
:1036C400022B2BD0214B1B68042B3DD0BDF80630B8
:1036D400214A13601B041E48036009234360C0236E
:1036E40083600023C3604FF480630361FDF742FAF3
:1036F400FFF776FC04460028B3D1FDF757FA174DBF
:1037040028600420FDF752FA68600820FDF74EFA9D
:10371400A8600C20FDF74AFAE860A2E70C480023F1
:1037240003600324446040228260C3604FF48063DA
:103734000361FDF71FFA0DF106012046FFF704FDB2
:1037440004460028BED08CE700248AE7D404002075
:10375400C00B0020B4040020DC040020C4040020BA
:10376400F0B40346A24A146880F85640A14A12886D
:10377400A0F85420A04D2A68100EC1B28E091E7004
:10378400C0F38300587001F003019970C2F307413C
:10379400D970C2F307211971D2B25A7169680A0E3D
:1037A4001201DA80C1F30740DA8892B242EA1012B9
:1037B400DA8000F00F001872080AC2B2D5095D72EF
:1037C400C0F380159D72C0F34015DD72C0F300157F
:1037D4001D7300255D73012C40F2A980022C00F0BA
:1037E400E680C2F380115976520002F07E029A7686
:1037F4008148027A997E41EAD211997602F07F02D9
:10380400DA76C1680A0ED0091877C2F341105877E6
:10381400C2F382009877920002F00C02DA77080C67
:10382400C2B2DC7F44EA9214DC77C0F3401083F820
:103834002000002083F8210002F0010283F82220F6
:103844000A0AD4B2E50983F82350C2F3801583F839
:103854002450C2F3401583F82550C2F3001583F8B1
:103864002650C2F3810283F8272004F0030483F86E
:103874002840C1F3460183F82910012483F82A4023
:103884005E4D2A68110E83F82C10C2F30741090219
:10389400D985C2F30726D98D89B23143D985120659
:1038A4001A636A68160E196B41EA06411963110C12
:1038B4001E6B090289B2314319631E6BC2F30721DF
:1038C40031431963D2B283F83420AA68110E83F805
:1038D4003510110C09069963110A9E6B090401F451
:1038E4007F0131439963996B120292B20A439A633E
:1038F400EA68996B41EA12619963110C93F83C50A0
:10390400C1F30316354383F83C50090201F4706196
:10391400D987C2F30725D98F89B22943D987C2F33E
:10392400460283F8402083F84140F0BC704780028F
:1039340000F4406018611A69890001F47F71114331
:1039440019612D4A9268100EC1B21C6944EA91149F
:103954001C61C0F3C200187501F007015975110C00
:10396400C1F342109875C1F38200D875490001F083
:1039740006011976C2F30722197E41EAD21119769B
:103984001D690135187E0230012404FA00F0C717BE
:10399400A5FB000105FB07111D7AEDB2AC401C65C7
:1039A400A0FB046704FB0177C3E9126719E7090464
:1039B40001F47C111961104A9268100E196941EAE8
:1039C400002119611869C2F3074101431961C2F367
:1039D400072218690021013041F10001C90441EABC
:1039E4005031C0049864D9644FF400711965F8E645
:1039F400D4040020DC040020C4040020B40400200B
:103A040010B51A4B1B68032B29D0022B2AD8B0F50A
:103A1400805F29D0B0F5006F0FD00020FFF78AFC3B
:103A24000446E8B9124800230375036043608360C9
:103A3400C3600361FDF772F812E00120FFF77AFC1E
:103A4400044668B90A480023037503604360836031
:103A54004FF40062C2600361FDF760F800E02724C0
:103A6400204610BD0024FBE72724F9E7D4040020F6
:103A7400300C002010B5094B186007245C6040220C
:103A84009A600022DA604FF480621A611846FDF7EA
:103A940071F82046FFF7C6FA10BD00BFC00B002026
:103AA40000B583B000238DF80730FDF72BF8FFF73E
:103AB400FDFC8DF807009DF807302BB19DF8070039
:103AC400C0B203B05DF804FBFFF7C2FD8DF8070038
:103AD4009DF807301BB19DF80700C0B2F1E7154807
:103AE40000230375036043608360C3600361FDF7D3
:103AF40015F81148FFF734FE8DF807009DF80730DC
:103B040033B19DF807306BB19DF80700C0B2D8E718
:103B1400094BB3F8540000040021FFF7ABFF8DF804
:103B24000700EEE74FF40060FFF76AFF8DF8070027
:103B3400EAE700BF300C0020D80B002008B5FFF7DF
:103B4400AFFF00B908BD4FF0FF30FBE710B50848E0
:103B5400002303600C24446040228260C3604FF45D
:103B640080630361FDF706F82046FFF75BFA10BD9A
:103B7400C00B002038B54FF0FF3300E0013B194A79
:103B840012683AB9184A126822B9184A12780AB95E
:103B9400002BF3D10022134B1A604FF0FF34144B67
:103BA4005B6B13F4005F02D00CB1013CF7E7114BDF
:103BB4001B68012B0FD000250CB905B9042540F270
:103BC400FF50FDF739F8094B1B7813B1074B1D78EB
:103BD400EDB2284638BDFFF7B9FF05460022054B74
:103BE4001A60E9E7D8040020E4040020E804002077
:103BF400002C0140E004002038B54FF0FF3300E012
:103C0400013B194A12683AB9184A126822B9184A8B
:103C140012780AB9002BF3D10022134B1A604FF02B
:103C2400FF34144B5B6B13F4805F02D00CB1013C86
:103C3400F7E7114B1B68012B0FD000250CB905B910
:103C4400042540F2FF50FCF7F7FF094B1B7813B132
:103C5400074B1D78EDB2284638BDFFF777FF0546C0
:103C64000022054B1A60E9E7D8040020E404002090
:103C7400E8040020002C0140E004002038B5C8B15D
:103C840005460E4B1B681B040D4803600D2444605D
:103C9400402383600023C3604FF480630361FCF717
:103CA40069FF2046FFF7BEF9044620B9FCF77EFF02
:103CB400286000E02624204638BD00BFDC04002034
:103CC400C00B002000B583B000230193FFF7C0FBB5
:103CD400012803D0FF2003B05DF804FB01A8FFF71F
:103CE400CDFF08B1FF20F6E70198C0F34320F2E7C7
:103CF40008B5FFF7E7FF042805D0FF2801D001200D
:103D040008BD022008BD002008BD000008B54FF41E
:103D14008070FCF797FFE0B90220FCF793FF50BBDB
:103D24000820FCF78FFF68BB2020FCF78BFF80BBCB
:103D34001020FCF787FF98BB4FF40070FCF782FF5C
:103D440088B14FF40070FCF787FF0722184B1A70F4
:103D540009E00022164B1A704FF48070FCF77CFFC8
:103D64000122144B1A6000214CF23A30FCF74CFF4C
:103D74000F4B187808BD0220FCF76EFF02220C4B93
:103D84001A70F0E70820FCF767FF0422084B1A704A
:103D9400E9E72020FCF760FF0622054B1A70E2E7F2
:103DA4001020FCF759FF0522014B1A70DBE700BF16
:103DB400E8040020E404002008B5074B1B6813F056
:103DC400C05F00D108BD0122044B1A604FF0C251FC
:103DD4000348FCF713FCF5E700640240D804002014
:103DE40058640240F0B583B001210D20FCF722FE97
:103DF4002B4C0C2208212046FCF787FC0C220921BD
:103E04002046FCF782FC0C220A212046FCF77DFCAC
:103E14000C220B212046FCF778FC0C22114620468C
:103E2400FCF773FC1F4F0C2202213846FCF76DFC93
:103E34004FF47063009302238DF805308DF804303D
:103E440000268DF8066001258DF807506946204646
:103E5400FCF70BFC0423009369463846FCF705FC89
:103E64004FF4805300938DF8076069462046FCF7B1
:103E7400FCFB4FF4807300938DF804608DF80750B9
:103E840069460948FCF7F1FB29464FF40060FCF74A
:103E9400EDFD29464FF48000FCF7CCFD03B0F0BDE6
:103EA40000080240000C02400000024008B5FFF781
:103EB40026F8FFF797FF08BD70B590B006460D468B
:103EC400204C4FF0FA512046FCF798FB0021204685
:103ED400FCF77EFB2046FCF7A3FA4FF00063019346
:103EE400194B0293039640230493059500230693EC
:103EF4004FF4806207924FF4805208924FF480424C
:103F040009920A934FF440330B9304230C93032335
:103F14000D934FF400030E934FF400130F9301A974
:103F24002046FCF729FB012210212046FCF780FBE8
:103F340020212046FCF757FB01212046FCF748FBD3
:103F440010B070BD58640240802C01402DE9F84344
:103F5400814617469846BDF82040099E0023414AF1
:103F64001370414A13600125404A1560404AD362E8
:103F7400294640F22A30FCF747FE06FB04F1484686
:103F8400FFF79AFF2846FCF739FE3A4B1B68022BD1
:103F940015D02546384804601024446040238360CB
:103FA4000023C3604FF480630361FCF7E3FD204604
:103FB400FFF738F8044640B12046BDE8F8837B0A91
:103FC40043EAC8574FF40074E3E72C4B1B681B0407
:103FD4002948036037244460402383600023C3607E
:103FE4004FF480630361FCF7C5FD2046FFF71AF820
:103FF40004460028E0D1204806601724446040238A
:1040040083600023C3604FF480630361FCF7B2FD57
:104014002046FFF707F804460028CDD1164807606C
:1040240019244460402383600023C3604FF48063F9
:104034000361FCF79FFD2046FEF7F4FF04460028C9
:10404400BAD10F484FF0FF33036005FB06F6466014
:10405400902383600023C360036101234361FCF761
:10406400B1FDA9E7E8040020E4040020E0040020F6
:10407400002C0140D4040020C00B0020DC040020EC
:10408400480C002010B582B0012301934FF4007353
:1040940000934A020023FFF759FFFFF7ADFD0446E2
:1040A400FFF726FE0028FBD10CB902B010BD4FF07B
:1040B400FF30FAE770B590B006460D46204C4FF03D
:1040C400FA512046FCF79AFA00212046FCF780FAC0
:1040D4002046FCF7A5F94FF000630193194B0293B6
:1040E400039600230493059506934FF48062079288
:1040F4004FF4805208924FF4804209920A934FF48D
:1041040040330B9304230C9303230D934FF40003C8
:104114000E934FF400130F9301A92046FCF72CFAD9
:10412400012210212046FCF783FA20212046FCF7C7
:104134005AFA01212046FCF74BFA10B070BD00BFBB
:1041440058640240802C01402DE9F843814616460C
:104154009846BDF82040099F00232B4A13702B4A30
:10416400136001252A4A15602A4AD362294640F27F
:104174002A30FCF749FD07FB04F14846FFF79AFF94
:104184002846FCF73BFD244B1B68022B14D0234824
:10419400046010254560402383600023C3604FF40E
:1041A40080630361FCF7E6FC2846FEF73BFF034609
:1041B40040B11846BDE8F883730A43EAC8564FF481
:1041C4000074E4E716484FF0FF33036004FB07F480
:1041D4004460902383600223C360002505610123AA
:1041E4004361FCF7EFFC0D48066012244460402351
:1041F4008360C5604FF480630361FCF7BBFC204619
:10420400FEF710FF0346D4E7E8040020E40400208E
:10421400E0040020002C0140D4040020C00B002046
:10422400480C002010B582B0012301934FF40073B1
:1042340000934A020023FFF787FFFFF79BFC044625
:10424400FFF756FD0028FBD10CB902B010BD4FF0AA
:10425400FF30FAE708B5FFF759FD08BD08B5FFF7C9
:10426400ABFD08BD70474FF0FF3070474FF0FF3093
:1042740070474FF0FF3070474FF0FF3070474FF0FA
:10428400FF307047F0B587B0044601210220FCF7E7
:10429400D1FB01214FF40010FCF7DAFB204F04227C
:1042A40006213846FCF731FA042207213846FCF788
:1042B4002CFA02238DF8143001258DF81650C023F2
:1042C400049300268DF817608DF8156004A938460C
:1042D400FCF7CBF92046FCF72FFA4FF48063ADF8D6
:1042E4000A304FF48043ADF80C3044F62063009359
:1042F4004BF6FF73ADF80630ADF804608823ADF8D3
:10430400083069462046FCF749FA29462046FCF75E
:10431400B3FA29462046FCF7E2FA07B0F0BD00BF25
:104324000004024010B504460121FCF7C1FA2046FE
:10433400FFF7A8FF10BD000070B504460E4601212A
:10434400FCF7A8FA4FF4A0652C492046FCF7DAFAEA
:1043540038B90DB1013DF7E72046FFF7E3FF002030
:1043640070BD012231462046FCF7B0FA4FF4A06537
:1043740023492046FCF7C6FA38B90DB1013DF7E7E9
:104384002046FFF7CFFF002070BD238B4FF4A065BC
:104394001C492046FCF7B6FA38B90DB1013DF7E7E0
:1043A4002046FFF7BFFF002070BD2046FCF7A7FAA8
:1043B400154B187000212046FCF791FA4FF4A065C4
:1043C40000E0013D0F492046FCF79CFA30B9002D6E
:1043D400F7D12046FFF7A6FF002070BD012120463B
:1043E400FCF766FA2046FCF78AFA074D687001214B
:1043F4002046FCF774FA284670BD00BF0100001087
:104404000200001040000010EC040020F8B504463F
:104414000E4617460121FCF73DFA4FF4A0654E49BC
:104424002046FCF76FFA38B90DB1013DF7E7204695
:10443400FFF778FF0020F8BD00212046FCF74FFA73
:10444400002231462046FCF741FA4FF4A065434967
:104454002046FCF757FA38B90DB1013DF7E720467D
:10446400FFF760FF0020F8BD238B39462046FCF798
:1044740044FA4FF4A0653A492046FCF743FA38B9A8
:104484000DB1013DF7E72046FFF74CFF0020F8BDD2
:1044940001212046FCF7FEF94FF4A06500E0013D40
:1044A4002D492046FCF72EFA30B9002DF7D12046CD
:1044B400FFF738FF0020F8BD012231462046FCF703
:1044C40005FA4FF4A06525492046FCF71BFA38B9D4
:1044D4000DB1013DF7E72046FFF724FF0020F8BDAA
:1044E400238B01212046FCF7FAF94FF4A0651D49FE
:1044F4002046FCF707FA38B90DB1013DF7E720462D
:10450400FFF710FF0020F8BD2046FCF7F8F9164B22
:10451400187000212046FCF7E2F94FF4A065114918
:104524002046FCF7EFF938B90DB1013DF7E7204615
:10453400FFF7F8FE0020F8BD01212046FCF7B8F98A
:104544002046FCF7DCF9084D687001212046FCF791
:10455400C6F92846F8BD00BF010000100200001093
:104564000400001040000010EC04002070B5044664
:104574000E460121FCF78EF94FF4A065364920461A
:10458400FCF7C0F938B90DB1013DF7E72046FFF754
:10459400C9FE002070BD012231462046FCF796F981
:1045A4004FF4A0652D492046FCF7ACF938B90DB19C
:1045B400013DF7E72046FFF7B5FE002070BD238BD1
:1045C4004FF4A06526492046FCF79CF938B90DB193
:1045D400013DF7E72046FFF7A5FE002070BD204609
:1045E400FCF78DF91F4B18704FF4A06500E0013DF6
:1045F4001B492046FCF786F930B9002DF7D1204637
:10460400FFF790FE002070BD2046FCF778F9154BAB
:10461400587000212046FCF762F94FF4A065104958
:104624002046FCF76FF938B90DB1013DF7E7204694
:10463400FFF778FE002070BD01212046FCF738F911
:104644002046FCF75CF9074DA87001212046FCF7D1
:1046540046F9284670BD00BF01000010020000109A
:1046640040000010EC040020F8B504460E4617463E
:104674000121FCF70FF94FF4A06526492046FCF709
:1046840041F930B90DB1013DF7E72046FFF74AFE85
:104694003AE0002231462046FCF718F94FF4A065B1
:1046A4001D492046FCF72EF930B90DB1013DF7E75D
:1046B4002046FFF737FE27E0238B4FF4A065174908
:1046C4002046FCF71FF930B90DB1013DF7E720464C
:1046D400FFF728FE18E039462046FCF70EF94FF4A0
:1046E400A06501E095B1013D0C492046FCF70AF9AB
:1046F4000028F7D00A492046FCF704F90028F1D035
:1047040001212046FCF7D4F80020F8BD2046FFF72D
:1047140009FEF9E7010000100200001080000010FB
:1047240004000010024A136801331360704700BF8D
:10473400F0040020FEE7FEE7FEE7000010B5ADF54B
:104744000A7D0446002000F019FE20B10124204611
:104754000DF50A7D10BD00F023FE20B101240020D8
:1047640000F03AFEF3E70222074901A800F042FEF6
:1047740008B10124F3E7214601A800F074FE01A862
:1047840000F06BFE0024EAE7446700082DE9F047D7
:10479400DAB03F4B00221A705A704FF4FA6000F0FE
:1047A400B3FE0446FCF7BAFFFCF7F0FCFCF7B6FBDB
:1047B400FCF71CFC00F010FB3648FFF763FDFCF728
:1047C400A9FDFCF7D3FD00F0D1FD2CA8FCF7D8F827
:1047D4002D9BB3F1807F0CD223F07F43013B2E4A03
:1047E4005360F0212D4B83F823100023936007239B
:1047F40013600020FCF7ECFF6CB13AAC284D0FCDF0
:104804000FC495E80F0007C423803AA8FCF7EEFF15
:104814003AA8FCF77BFC1AA800F0A4FA08A800F058
:10482400A1FA01AC1F4D0FCD0FC495E8030084E835
:10483400030001A8FCF7DAFF01A8FCF767FC00F00D
:10484400B7FB01254FF0000800E0B846164B1B6883
:10485400052B0DD000F073FE0024FF2C0ED000F0C9
:10486400C7FC01280AD00134E4B2F6E7B846EDE704
:10487400002DEFD000F09CFB0025EBE70024FF2C7B
:1048840014D0FDF73FF8012810D00134E4B2F6E764
:10489400600C00200054004010E000E000ED00E057
:1048A400546700089C670008F00400201AA800F070
:1048B4002DFD9DF89B30302B00F01D821AA908A80D
:1048C40000F01EFD30238DF853301AAE1AA800F004
:1048D4003AFE0746EB4B1B68462B00F20E82B845A6
:1048E400B4D0E94BA3FB0723DB0803EB83035A0093
:1048F4009742AAD19020FCF70FFDADF81E00E34CBF
:1049040043B22246042136A800F052FE9220FCF75E
:1049140003FDADF81E0043B22246042137A800F07F
:1049240047FE9620FCF7F8FCADF81E0043B2224681
:10493400042138A800F03CFE9E20FCF7EDFCADF805
:104944001E0043B22246042139A800F031FE0DF1C5
:104954001E0107A8FCF788FDCD4CBDF81C3022468B
:10496400052130A800F024FEFF210B20FCF72CFBCE
:104974004FF47A6303FB00F3C648A0FB0323C3F39D
:10498400CF23ADF81C302246072134A800F010FED6
:10499400FF210A20FCF718FB4FF4FA5303FB00F045
:1049A400BD4BA3FB0023C01A03EB5003C3F3CF2377
:1049B400ADF81C302246072132A800F0F9FD5AACAC
:1049C400002304F8803D2046FBF7FAFBC0F1800287
:1049D400B249204600F03EFE2046FBF7F1FBDFF82B
:1049E400C882C0F180024146204600F033FE2046D2
:1049F400FBF7E6FBC0F180021AA9204600F02AFE6C
:104A04002046FBF7DDFBC0F180024146204600F062
:104A140021FE06F10B092046FBF7D2FBC0F1800210
:104A24004946204600F016FE2046FBF7C9FBC0F1BC
:104A340080024146204600F00DFE06F1170920468B
:104A4400FBF7BEFBC0F180024946204600F002FE9F
:104A54002046FBF7B5FBC0F180024146204600F03A
:104A6400F9FD06F124092046FBF7AAFBC0F18002F8
:104A74004946204600F0EEFD2046FBF7A1FBC0F1BD
:104A840080024146204600F0E5FD06F1300920464B
:104A9400FBF796FBC0F180024946204600F0DAFDA0
:104AA4002046FBF78DFBC0F180024146204600F012
:104AB400D1FD06F133092046FBF782FBC0F18002E9
:104AC4004946204600F0C6FD2046FBF779FBC0F1BD
:104AD40080024146204600F0BDFD2046FBF770FBF6
:104AE400C0F1800236A9204600F0B4FD2046FBF751
:104AF40067FBC0F180024146204600F0ABFD204632
:104B0400FBF75EFBC0F1800237A9204600F0A2FD4E
:104B14002046FBF755FBC0F180024146204600F0D9
:104B240099FD2046FBF74CFBC0F1800238A92046D2
:104B340000F090FD2046FBF743FBC0F180024146A4
:104B4400204600F087FD2046FBF73AFBC0F18002C7
:104B540039A9204600F07EFD2046FBF731FBC0F169
:104B640080024146204600F075FD2046FBF728FBF5
:104B7400C0F1800230A9204600F06CFD2046FBF70E
:104B84001FFBC0F180024146204600F063FD204631
:104B9400FBF716FBC0F1800234A9204600F05AFD51
:104BA4002046FBF70DFBC0F180024146204600F091
:104BB40051FD2046FBF704FBC0F1800232A92046D8
:104BC40000F048FD2046FBF7FBFAC0F180023449AF
:104BD400204600F03FFD06F136092046FBF7F0FAC7
:104BE400C0F180024946204600F034FD2046FBF720
:104BF400E7FADFF8B890C0F180024946204600F099
:104C040029FD06F1390A2046FBF7DAFAC0F18002E1
:104C14005146204600F01EFD2046FBF7D1FAC0F1B4
:104C240080024946204600F015FD06F13C09204665
:104C3400FBF7C6FAC0F180024946204600F00AFD9F
:104C44002046FBF7BDFAC0F180024146204600F041
:104C540001FD41362046FBF7B3FAC0F1800231462C
:104C6400204600F0F7FC9DF89B30302B4ED03AA83C
:104C7400FBF7A6FAC0F180020A493AA800F0EAFC60
:104C84003BA815E0F0040020CDCCCCCC7467000820
:104C940078670008D37AACB3CF85904C7C67000862
:104CA4008C670008E46700088867000890670008BC
:104CB400FFF744FD01283CD0254B1B78002B42D143
:104CC400244BA3FB07235B09642202FB1373002B11
:104CD4007FF4CCAD3AA8FBF773FAC0F180021E4909
:104CE4003AA800F0B7FC3AA8FCF710FA00221B4BD4
:104CF4001A60B846AAE508AEE8E53AA8FCF706FA51
:104D040000F0CCF80022154B1A60E8E53AA8FBF74E
:104D140057FAC0F1800241463AA800F09BFC3AA839
:104D2400FBF74EFAC0F1800208A93AA800F092FC01
:104D34009DE73AA8FBF744FAC0F1800208493AA873
:104D440000F088FCB8E73BA8FCF750FDB8E700BFCB
:104D5400600C00201F85EB51E4670008F00400207C
:104D640094670008302280F84120002380F8423004
:104D740080F8242080F8253080F8362080F83730F9
:104D8400C27203734275837580F83530C275037639
:104D940080F8222080F8233080F8392080F83A30D7
:104DA40080F8302080F8313080F82C2080F82D30C5
:104DB4000270437080F8332080F8343080F83C204F
:104DC40080F83D307047000008B50248FFF7CAFF7D
:104DD40008BD00BFF404002070B588B02C48FCF76F
:104DE40077FC2C4B002483F89E4283F89F420121D8
:104DF4002020FBF73BFE01210420FBF71BFE264D80
:104E0400082206212846FBF780FC082207212846B1
:104E1400FBF77BFC02238DF81C308DF81E40C0226A
:104E240006928DF81F408DF81D3006A92846FBF721
:104E34001CFC4FF416430293ADF814400C23ADF858
:104E44001230ADF81040ADF80E40ADF80C40A5F5A9
:104E5400744502A92846FBF791FF47238DF80430D7
:104E640001268DF807608DF805408DF8064001A8ED
:104E7400FBF7B8F9324640F225512846FBF7FCFF10
:104E840031462846FBF7E2FFFFF79EFF08B070BDEE
:104E9400640C0020C0050020000802407047000098
:104EA4000378622B00D07047F0B589B0214A92F89C
:104EB4009F624778862303FB06235F7090F802E025
:104EC40083F802E0C578411D027945EA02259D80F8
:104ED400002309E008788622164C02FB06421A4495
:104EE40090710133DBB2013105F07F029342F1DBB3
:104EF400062F01D009B0F0BDBEF1240FFAD18622ED
:104F04000C4B02FB0636337A062B0BD00A4A1D21C2
:104F1400684600F04DFB01A8FCF768FC6846FCF706
:104F2400F5F8E7E70548FCF761FC0548FCF7EEF8FF
:104F3400E0E700BFC0050020E8670008C467000878
:104F4400D467000810B540F225510948FBF7B7FFB4
:104F540000B910BD064C40F225512046FBF7D5FFA1
:104F64002046FBF785FFC1B20248FCF7C7FBF0E718
:104F740000140140640C002008B501460448FBF706
:104F840073FF40210248FBF793FF0028F9D008BDC6
:104F94000014014070B506460D46002404E0305D5F
:104FA400FFF7EAFF0134E4B2AC42F8D370BD00006D
:104FB40008B508210248FFF7EDFF012008BD00BF36
:104FC400B4670008002302E001300133DBB2027849
:104FD4008A42F9D1002AF7D0184670479A4200D87D
:104FE40013466BB1002293420FD910B48C5C8454E5
:104FF4000132D2B29342F9D80022C25410BC704795
:10500400302303700023437070470022C25470475A
:105014000378472B00D070472DE9F04184B0841CFD
:105024004378502B02D004B0BDE8F0812C212046F7
:10503400FFF7C8FF80460623024621466846FFF76D
:10504400CDFF08F10108A04403226946654800F039
:1050540015FBD8B303226946634800F00FFB002810
:10506400E1D1624D012385F835302C214046FFF70C
:10507400A9FF441C44442C212046FFF7A3FF064605
:1050840002230246214605F13600FFF7A7FF013649
:1050940034442C212046FFF795FF0646022302469E
:1050A400214605F13900FFF799FF013634442C21DC
:1050B4002046FFF787FF04230246214605F13C0002
:1050C400FFF78CFF002385F83530ACE7474D012707
:1050D40085F835702C214046FFF774FF04460623FB
:1050E400024641462846FFF779FF3C4444442C21BC
:1050F4002046FFF767FF064609230246214605F1CD
:105104000B00FFF76BFF3E4434442C212046FFF78D
:1051140059FF06463B460246214605F11500FFF7B6
:105124005DFF3E4434442C212046FFF74BFF0646E6
:105134000A230246214605F11700FFF74FFF3E44BC
:1051440034442C212046FFF73DFF06463B460246E9
:10515400214605F12200FFF741FF3E4434442C214F
:105164002046FFF72FFF06463B460246214605F13F
:105174003300FFF733FF3E4434442C212046FFF72D
:1051840021FF064602230246214605F13000FFF7BF
:1051940025FF3E4434442C212046FFF713FF80466C
:1051A40004230246214605F14100FFF717FFB844E6
:1051B400A0442C214046FFF705FF04462E2140461B
:1051C400FFF700FF0246844200D82246074C07231B
:1051D400414604F12400FFF701FF002384F8353031
:1051E40038E700BFBC670008C0670008F40400206B
:1051F40010B582B002A9002301F8013D3A48FCF73A
:105204006DFA00286BD10446384B5B781BBB384BD6
:105214001B78022B24D0012B37D0002B60D1354BC7
:105224001B7803F07F019DF8072033484254032B79
:1052340048D0042B4DD0002B3ED0304A1388013B7C
:105244009BB21380002B3FD12B48FFF729FE02228B
:10525400274B1A7038E09DF80700FCF7B9FAD6E737
:105264000022244B1A709DF80730242B09D0B52B4B
:1052740036D100221E4B1A704FF6FF721F4B1A8054
:105284002EE001221A4B1A702AE09DF807202A2AE0
:1052940008D018490B78581C087003F07F0316498E
:1052A400CA541DE00022134B1A701348FFF7B0FED6
:1052B40002220F4B1A7013E0622A05D002220C4B13
:1052C4001A7001E00D4B1A800A4A137801331370E7
:1052D40006E00A490B8843EA02220A80F4E7012423
:1052E400204602B010BD00BF640C0020600C0020FA
:1052F40012020020BC0500203C05002060080020AC
:1053040008B5462200F048F908BD000008B5024976
:10531400FFF7F6FF08BD00BFF4040020DFF834D027
:10532400002103E00C4B5B58435004310B480C4BF9
:1053340042189A42F6D30B4A02E0002342F8043B97
:10534400094B9A42F9D300F0BDF800F001F9FFF7D8
:105354001DFA7047004001204C690008000000203D
:10536400E4030020E8030020700D002008B5FEF7D8
:105374009DFDFEF777FFFDF7B2FD08BD20B10020CB
:1053840001280AD00120704708B5FEF777F80128F4
:1053940001D0012008BD002008BD00207047000096
:1053A40010B582B0044620B1132030B1022002B0FF
:1053B40010BD0749FDF70CFAF7E71CB10028F6D039
:1053C4000320F4E76A4601A90248FDF7E2FCF5E789
:1053D400640800200068000818B1132048B10220B6
:1053E400704708B500210846FDF7F2F900B1022024
:1053F40008BD704770B505460E4614464AB11320E1
:10540400012C0AD0022C0ED0032C12D0B8B10520E6
:1054140070BD0122FDF7F0F9F2E702223146284679
:10542400FDF7EAF9EEE7122231462846FDF7E4F9E2
:10543400EAE70A2231462846FDF7DEF9E6E7013CB1
:10544400E4B2012C01D9002070BDE9682846FDF7BB
:10545400CDFB08B1082070BD70BD08B5FDF7BCFBDD
:1054640000B1062008BD10B5044608462146FDF7E4
:1054740024FD002801DA072010BD21460A20FDF78B
:1054840001FD002010BD00004FF4E0620A4B1A60D9
:10549400A3F580639A689A609A689A609A689A6099
:1054A400064A5A601A6842F080721A60044B1B68FC
:1054B40013F0007FFAD07047003C02400830030C20
:1054C4000038024008B50D4B1A6842F001021A6018
:1054D400002199601A6822F0847222F480321A60E2
:1054E400074A5A601A6822F480221A60D960FFF7CA
:1054F400CBFF4FF00062034B9A6008BD00380240B6
:105504001030002400ED00E038B504467D20FBF7A0
:10551400D7FA80B9002545F25550FBF70FFA03205E
:10552400FBF712FA2046FBF715FAFBF719FAFBF71B
:105534001FFA284638BDFBF7DDFA0125EBE708B56D
:10554400FBF70EFA08BD0A22002100F029B9000079
:1055540070B500250C4E0D4CA41BA410A54209D116
:1055640000F070FD00250A4E0A4CA41BA410A542AD
:1055740005D170BD56F8253098470135EEE756F849
:10558400253098470135F2E744690008446900086A
:10559400446900084869000810B5431E0A44914252
:1055A40000D110BD11F8014B03F8014FF7E70000DB
:1055B4000CB430B5174B0C1E9DB01D6808DA8B2354
:1055C4004FF0FF302B601DB0BDE8304002B0704793
:1055D4004FF40273ADF814300CBF234604F1FF33CB
:1055E400049307934FF6FF7302900690ADF81630BC
:1055F400209A21AB02A92846019300F067F9431CC5
:10560400BCBF8B232B60002CDDD00022029B1A70C0
:10561400D9E700BF14020020F8B506460F4616F875
:10562400014B00F0D7F82044437817F8015B03F0EE
:105634000303012B08BF203400F0CCF8284443783E
:1056440003F00303012B08BF2035601B01D1002D9B
:10565400E5D1F8BD034630B51C785D1C44B912F1A0
:10566400FF3204D311F8014B03F8014B14B930BDD8
:105674002B46F1E7002AF2D11A70F0E710B56AB1AF
:105684000139841810F8013B11F8012F934203D11A
:10569400A04201D0002BF5D1981A10BD104610BDC0
:1056A4002DE9F84F8046894692461F468B465D4653
:1056B4000A9815F8014B00F089F82044467816F052
:1056C40008060BD12D2C0BD101262C780BF10205E9
:1056D40067B1102F14D1302C0AD011E0AB46E6E7A5
:1056E4002B2C04BF2C780BF10205F1E7302C27D1C9
:1056F4002B7803F0DF03582B4BD110276C7802353D
:10570400002E0CBF6FF000414FF000410022B1FBAE
:10571400F7FE104607FB1E1CA4F13003092B11D819
:105724001C46A7421DDD531C07D0864516D301D164
:10573400A44513DB012200FB074015F8014BEBE7FE
:105744000A27DDE7A4F14103192B01D8373CE8E728
:10575400A4F16103192B04D8573CE2E74FF0FF3260
:10576400EBE7531C08D122230846C8F80030BAF1ED
:10577400000F07D1BDE8F88F06B14042BAF1000F1F
:105784000CD022B1013DCAF80050BDE8F88F4D4657
:10579400F9E73024002FB3D10827B1E7BDE8F88F2B
:1057A400084B37B51C68084D236A002B08BF2B46ED
:1057B400009313460A4601462046FFF771FF03B0E3
:1057C40030BD00BF1402002078020020D0F8EC00A5
:1057D40070470000044B054A1B681B6A002B08BF76
:1057E4001346D3F8EC00704714020020780200201E
:1057F40082B001B901A942B14BB113780B601278A0
:10580400101C18BF012002B070471046FBE76FF070
:105814000100F8E72DE9F0478E6882469E420C4667
:105824009146984635D88A8912F4906F31D0022374
:10583400256809696F1A656905EB450595FBF3F55C
:1058440008F101033B449D4238BF1D46530531D541
:10585400294600F049FB064650B90C23CAF800302B
:10586400A3894FF0FF3043F04003A381BDE8F087E4
:105874003A462169FFF790FEA38923F4906343F02D
:105884008003A38126613E44266046466561ED1B84
:10589400A560464528BF464649463246206800F082
:1058A400BCFAA36800209B1BA36023681E442660E7
:1058B400BDE8F0872A4600F075FB06460028E1D1D2
:1058C4002169504600F0C4FAC7E700002DE9F04F03
:1058D4009DB003938B8980461C060D4616460FD552
:1058E4000B696BB9402100F0FFFA2860286128B9E0
:1058F4000C23C8F800304FF0FF30C4E040236B6144
:105904000023099320238DF8293030234FF0010B15
:105914008DF82A3037463C4614F8013B002B3CD125
:10592400B7EB060A0BD05346324629464046FFF7EA
:1059340071FF013000F0A280099B534409933B7826
:10594400002B00F09B8000234FF0FF320493079359
:10595400059206938DF853301A9305222178504806
:1059640000F04DFA671C049BD8B9D90644BF202225
:105974008DF853201A0744BF2B228DF85320227828
:105984002A2A16D000210A20079A27463B78013498
:10599400303B092B50D9C9B111E0252BC0D0274683
:1059A400B9E73F4A3C46801A0BFA00F018430490CA
:1059B400D3E7039A111D12680391002A01DB0792B1
:1059C40004E0524243F00203079204933B782E2BE7
:1059D4000DD17B78791C2A2B32D1039B02371A1DF7
:1059E4001B680392002BB8BF4FF0FF3305932D4C77
:1059F40003223978204600F002FA38B14023001B14
:105A040003FA00F0049B0137034304933978062218
:105A140025487E1C8DF8281000F0F1F9002835D0B7
:105A2400224BFBB9039B073323F00703083303938B
:105A3400099B4B4409936DE700FB02320121A4E763
:105A440000230A24184605930F463A780131303A68
:105A5400092A03D9002BCAD00590C8E704FB00200B
:105A64000123F1E703AB00932A46114B04A94046F6
:105A7400AFF30080B0F1FF3F8146D9D1AB895B061B
:105A84003FF539AF09981DB0BDE8F08F03AB009323
:105A94002A46074B04A9404600F084F8EAE700BF11
:105AA4000E68000814680008186800080000000068
:105AB400195800082DE9F04791461F468A680B697A
:105AC40006469342B8BF1346C9F8003091F8432004
