:020000040800F2
:100000000040012021460008F53C0008F73C0008AC
:10001000F53C0008F53C0008F53C00080000000035
:10002000000000000000000000000000F53C000897
:10003000F53C000800000000F53C0008E53C000825
:10004000F53C0008F53C0008F53C0008F53C0008CC
:10005000F53C0008F53C0008F53C0008F53C0008BC
:10006000F53C0008F53C0008F53C0008F53C0008AC
:10007000F53C0008F53C0008F53C0008F53C00089C
:10008000F53C0008F53C0008F53C0008F53C00088C
:10009000F53C0008F53C0008F53C0008F53C00087C
:1000A000F53C0008F53C0008F53C0008F53C00086C
:1000B000F53C0008F53C0008F53C0008F53C00085C
:1000C000F53C0008F53C0008F53C0008F53C00084C
:1000D000F53C00087D480008F53C0008F53C0008A8
:1000E000F53C0008F93C0008F53C0008F53C000828
:1000F000F53C0008F53C0008F53C0008F53C00081C
:10010000F53C000843380008F53C0008F53C0008C1
:10011000F53C0008F53C0008F53C0008290F0008F4
:10012000F53C0008F53C0008F53C0008473800089D
:10013000F53C0008F53C0008F53C0008F53C0008DB
:10014000F53C0008F53C0008F53C0008F53C0008CB
:10015000F53C0008F53C0008F53C00086143000848
:10016000F53C0008F53C0008F53C0008F53C0008AB
:10017000F53C0008F53C0008F53C0008F53C00089B
:04018000F53C000842
:1001840010B5054C237833B9044B13B10448AFF3CD
:1001940000800123237010BDE8030020000000004C
:1001A4009453000808B5034B1BB103490348AFF34C
:1001B400008008BD00000000EC03002094530008F8
:1001C400034613F8012B002AFBD1181A0138704793
:1001D40040F0BF60024B40F40030D860704700BF6D
:1001E40000ED00E010B5C3780278FBB1154BD96877
:1001F4004378C943C1F30221C1F10404E4B2A3402A
:100204000F24807844FA01F10140DBB20B430E491C
:100214001B018818DBB280F800330123500902F077
:100224001F0203FA02F241F8202010BD01215309F4
:1002340002F01F0201FA02F20349203341F823209D
:1002440010BD00BF00ED00E000E100E043680A7962
:1002540023F0407323F4807343EA02230A6810B541
:1002640013434360CA680B69846813438A68134361
:10027400084A224013434A7943EA420383600A7DD1
:10028400C36A013A23F47003D2B243EA0253C3624D
:1002940010BD00BFFDF7FFC000230360037143716D
:1002A4008360C3600361012303757047074990E8C5
:1002B4000C0010B513434C68054A2240134382686E
:1002C4001343C26813434B6010BD00BF00230140B9
:1002D400E030FCFF836819B143F001038360704789
:1002E40023F00103FAE7092970B51BD90726A1F108
:1002F4000A04C56804EB4404A64025EA060503FA8B
:1003040004F42C43C460062A18D81F24013A436B12
:1003140002EB8202944023EA040301FA02F21A4334
:10032400426370BD0724056901EB4106B44025EA28
:10033400040503FA06F42C430461E4E70C2A0CD800
:100344001F24073A036B02EB8202944023EA04035E
:1003540001FA02F21A43026370BD1F240D3AC36A04
:1003640002EB8202944023EA040391401943C162E0
:1003740070BD836843F0804383607047C06C80B273
:1003840070470368194214BF012000207047000021
:1003940040F6FE7330B5084C8340226822EA03021B
:1003A40091E828002B438D68C9682B430B4303FA5B
:1003B40000F01043206030BD00740040064A012361
:1003C40021B1116883400B43136070471168834067
:1003D40021EA0303F8E700BF00740040064A4FF423
:1003E400805321B1116883400B4313607047116837
:1003F400834021EA0303F8E700740040036823F014
:10040400010303600023036043608360C3600361EE
:10041400212343612A4B984203D13D2243F8082CFF
:100424007047284B984204D14FF4746243F8202C4F
:100434007047254B984204D14FF4741243F8382C7A
:100444007047224B984204D14FF0746243F8502C09
:1004540070471F4B984203D11E4A43F8642C7047DF
:100464001D4B984203D11D4A43F87C2C70471C4B0A
:10047400984203D11B4A43F8942C70471A4B984274
:1004840004D14FF03D5243F8AC2C17E0174B98427F
:10049400C3D0174B9842C7D0164B9842CCD0164BBA
:1004A4009842D1D0154B9842D6D0154B9842DAD009
:1004B400144B9842DED0144B9842E2D0704700BFF0
:1004C40010600240286002404060024058600240D0
:1004D400706002403D00002088600240400F002010
:1004E400A060024000003D20B86002401064024059
:1004F4002864024040640240586402407064024030
:1005040088640240A0640240B86402400368134A4D
:1005140010B51A40CC680B6823434C6923438C699B
:100524002343CC6923430C6A23434C6A23438C6AD8
:1005340023434C6B23438C6B234313430360426973
:10054400CB6A0C6B22F007022343134343610B690C
:1005540043604B6883608B68C36010BD3F801CF0B0
:10056400036819B143F001030360704723F00103EA
:10057400FAE7036819B143F020030360704723F0DE
:100584002003FAE70B0612D5436952B143F0800306
:100594008029436104D0036801F01E0119430160FE
:1005A400704723F080038029436104D17047802978
:1005B400F6D0002AEFD1036801F01E0123EA0101FD
:1005C400EDE7000010B5084A084B094CA04294BF5F
:1005D4001846104611F0005F21F0F02121F082113D
:1005E40014BFC160816010BD00640240006002401D
:1005F4000F640240FFF7E6BF2DE9F0430022012615
:1006040003240D6806FA02FC3CEA05033DD15700B9
:1006140004FA07F3DB43D0F800E00EEA030EC0F857
:1006240000E091F804E0D0F800900EFA07F80EF11B
:10063400FF3E48EA0908BEF1010FC0F8008017D850
:10064400D0F808E003EA0E0383604B79D0F808E0A1
:10065400BB4043EA0E038360436823EA0C03436010
:100664008B79D0F804E093409BB243EA0E034360D5
:10067400C36804FA07FE23EA0E03C360CB79D0F8FB
:100684000CE0BB4043EA0E03C3600132102AB9D127
:10069400BDE8F0830369194214BF012000207047AC
:1006A400018370474183704710B50F2401F007039D
:1006B400C90800EB8100016A9B009C4021EA040107
:1006C4000162016A9A400A43026210BD08B5144BE4
:1006D40098420BD101214FF4001000F071F9002170
:1006E4004FF40010BDE8084000F06AB90D4B984281
:1006F40008D101214FF4800000F062F900214FF489
:100704008000EFE7084B984208D101214FF4000024
:1007140000F056F900214FF40000E3E708BD00BFE4
:100724000054004000580040005C00407FB504467F
:10073400868868460D4600F0DBF8029A2D4926F0BB
:100744003F06B2FBF1F13604360C88B20643A680AC
:100754002388294E23F001031B041B0C23802B68E0
:10076400B34223D85B00B2FBF3F39BB2042B38BF34
:100774000423013080B22084A3832388AA889BB2F7
:1007840043F0010323802388698923F4816323F0E0
:1007940002031B040A431B0C13439BB223802A89C4
:1007A400AB8913439BB2238104B070BD4BF6FF7039
:1007B400EE8886421BBF1920434303EB4303B2FB7D
:1007C400F3F30BBFB2FBF3F39BB29BB243F480434E
:1007D400C3F30B020AB943F001034FF496724A4380
:1007E4004FF47A7192FBF1F2013292B243F4004376
:1007F4002284C1E740420F00A0860100038821B192
:100804009BB243F001030380704723F001031B04F0
:100814001B0CF8E7038821B19BB243F48073038077
:10082400704723F480731B041B0CF8E7038821B181
:100834009BB243F400730380704723F400731B04DA
:100844001B0CF8E722B141F0010189B20182704723
:1008540001F0FE01F9E7038821B19BB243F4806300
:100864000380704723F480631B041B0CF8E70182A8
:100874007047008AC0B27047002382B0009301938E
:100884000B0F01900093009B21F07F4153B1019B1A
:1008940014330193019B1B68194214BF01200020EB
:1008A40002B07047019B090C1833F2E7014B186042
:1008B400704700BF00300040014B5860704700BFD4
:1008C40000300040014B9860704700BF003000408A
:1008D4004AF6AA22014B1A60704700BF003000405C
:1008E4004CF6CC42014B1A60704700BF0030004008
:1008F4001D4A10B5936803F00C03042B1AD0082B7F
:100904001AD01A4B184A036093681949C3F30313A6
:10091400CC5C0368E34043609468C4F382240C5DB8
:1009240023FA04F484609268C2F342328A5CD340AE
:10093400C36010BD0F4BE5E75468516863024CBFB8
:100944000C4B0A4B01F03F01B3FBF1F35268C2F3C5
:1009540088125343044A5268C2F3014201325200DE
:10096400B3FBF2F3CEE700BF003802400024F400EA
:100974000000002040787D01044B1A6B11B1104334
:100984001863704722EA0000FAE700BF003802400B
:10099400044B1A6C11B110431864704722EA00002A
:1009A400FAE700BF00380240044B5A6C11B11043FF
:1009B4005864704722EA0000FAE700BF003802409A
:1009C400044B1A6A11B110431862704722EA0000FE
:1009D400FAE700BF00380240044B5A6A11B11043D1
:1009E4005862704722EA0000FAE700BF003802406C
:1009F4004209012A074B07D11B6800F01F0023FAA4
:100A040000F000F001007047022A0CBF1B6F5B6FFF
:100A1400F3E700BF00380240024A536F43F080738B
:100A2400536770470038024008B501214FF4006055
:100A3400FFF7D2FFBDE8084000214FF40060FFF744
:100A4400CBBF00000A4910B54A688368446822F4A1
:100A5400FD4222F07F0223431343C268134302681A
:100A6400134302691343027D13434B6010BD00BF5F
:100A7400002C0140014B1860704700BFA080254244
:100A8400014B1860704700BF002C0140024B1868EE
:100A940000F00300704700BF002C014003680949BF
:100AA40010B58B60CA684368846822F4FF6222F040
:100AB400070223431343C268134302691343CB6001
:100AC40010BD00BF002C0140014B1869C0B2704733
:100AD400002C0140002382B00193034B0344019393
:100AE400019B186802B07047142C01400368094A3E
:100AF40010B5536243689362D16A8368C46821F075
:100B0400F70123430B4301690B4341690B43D36250
:100B140010BD00BF002C0140014BD3F8800070478A
:100B2400002C0140014B1860704700BF8C852542A2
:100B3400044BDA6B11B11043D863704722EA00000A
:100B4400FAE700BF002C0140014B9863704700BFD7
:100B5400002C0140034B5B6B034214BF01200020B7
:100B6400704700BF002C0140FFF7F4BF014B9863AE
:100B7400704700BF002C01401C4A038890429BB27E
:100B840012D002F5806290420ED0B0F1804F0BD0AB
:100B9400A2F58032904207D002F58062904203D0E1
:100BA40002F58062904203D14A8823F07003134314
:100BB4000F4A904208D002F5806290421FBF23F48E
:100BC40040730A899BB2134303804B68C3620B884A
:100BD4000385064B984203D003F58063984201D104
:100BE4008B7A038601238382704700BF0000014093
:100BF400001000404FF0FF33436000230380038163
:100C0400438083727047C1627047038821B19BB2ED
:100C140043F080030380704723F080031B041B0C04
:100C2400F8E7038821B19BB243F0010303807047C6
:100C340023F001031B041B0CF8E7038A828911EAE1
:100C4400030092B203D0114214BF01200020704768
:100C5400C94389B20182704783899BB212B1194397
:100C64008181704723EA0101FAE7FFF7F5BF838822
:100C740023F070031B041B0C838083889BB21943ED
:100C84008180704730B50D460446028AEB8892B2E3
:100C940022F440521A43898902828389288923F4E1
:100CA400B052AB8822F00C02034368891204034358
:100CB400120C9BB21343A381A38A85B09BB223F485
:100CC40040730B43A3826846FFF712FE194B9C4204
:100CD40003D003F580639C4221D103991922A3898F
:100CE4004A4313F4004F2B684FF0640514BF5B00B4
:100CF4009B00B2FBF3F1B1FBF5F3A28918011204D6
:100D040005FB13130DD5DA003232B2FBF5F202F013
:100D1400070242EA00039BB2238105B030BD029969
:100D2400DCE71B013233B3FBF5F303F00F0303439A
:100D3400F1E700BF00100140838921B19BB243F465
:100D440000538381704723F400531B041B0CF8E702
:100D5400C1F30801818070478088C0F308007047A0
:100D640001F01F0310B5C1F342140121012C01FA53
:100D740003F105D10C3003683AB11943016010BD89
:100D8400022C0CBF10301430F5E723EA0101F5E71B
:100D94000388194214BF0120002070470123C1F3C6
:100DA400421210B5012A01F01F0403FA04F30ED114
:100DB400828992B21340028892B26BB10123090A6C
:100DC40003FA01F10A4214BF1846002010BD022A9A
:100DD4000CBF028A828AECE7184610BD0B0A012177
:100DE4009940C94389B201807047000030B50121A0
:100DF4008DB004200024FFF7BFFD03236946194882
:100E040000938DF804308DF80740FFF7F5FB0121BE
:100E14004FF48070FFF7C8FD4FF44033012502A85A
:100E24000393029404940594FFF740FA06A8FFF78D
:100E340033FA06948DF81C408DF81D4009940894EB
:100E44000A9404F1804404F5903406A920468DF8F0
:100E54002C50FFF7FBF929462046FFF73BFA0DB06B
:100E640030BD00BF0008024008B501460023094810
:100E74000122FFF738FA0748FFF77BFA02210548F9
:100E8400FFF77FFA0028F9D00248BDE80840FFF7D1
:100E940075BA00BF00200140F8B5002507460E468C
:100EA4002C46B54203D1B4FBF5F080B2F8BD384608
:100EB400FFF7DAFF01350444F3E7000030B5012100
:100EC40085B02020FFF764FD01A8FFF793FE0323FC
:100ED400029343F21443ADF804300023104D01A9EA
:100EE4002846ADF80C30ADF80630FFF745FE372341
:100EF40001248DF800300F2368468DF801308DF8F9
:100F040002308DF80340FFF76DF92246214628464A
:100F1400FFF7ABFE21462846FFF783FE05B030BD40
:100F24000014004038B501212048FFF786FE002850
:100F34003BD01F4C01211D48FFF78AFE23781D4D2D
:100F44001BB91D4A2B70138038BD2878E0B900F016
:100F54003BF92B780133DBB20A2B2B7025D9002205
:100F6400154916480B88008801339BB298420B80C0
:100F74002A701AD20A80227000F018F9BDE83840AD
:100F840004210F48FFF78EBBA0F10903012B81BF99
:100F9400094B0C4A1B8800F1FF3089BFD35C012048
:100FA40043FA00F000F00100D1E738BD001400401E
:100FB400080400200404002006040020100200207D
:100FC400000002401000002038B50446FFF7F8F88E
:100FD400193080B2B0F5007F88BF4FF40073194A0E
:100FE40088BF13804FF0000398BF108016481D4639
:100FF40001461D540133192BFBD1601E1288134C7A
:10100400934217D3192A13464FF0000238BF19230D
:10101400CA54581C023380B29BB20A54CA5400F01A
:101024007FF801220A4B04211A700A48BDE83840AF
:10103400FFF736BB10F8015F013304F8015F9BB280
:10104400DEE700BF1002002010000020280000206E
:101054000804002000000240012170B5084686B053
:101064000024FFF789FC102503232A4E01A93046EA
:101074008DF8083001958DF80B40FFF7BDFA01217A
:101084002846FFF785FC03A8FFF7B4FD0E23224D85
:1010940003A928460493ADF80C40ADF81440ADF80C
:1010A4000E40FFF769FD28460121FFF7AEFD2846F3
:1010B4002021FFF7DCFD284604250121FFF7B1FDBF
:1010C40001214FF00050FFF763FC144920460D60E6
:1010D4004C60CC60FFF75CF920460121FFF76EF904
:1010E40001210846FFF748FC01230DEB05013046BA
:1010F4008DF8083001958DF80A408DF809408DF877
:101104000B40FFF779FA20213046FFF7CBFA06B0FF
:1011140070BD00BF000002400010004078070020AE
:1011240070B51F4D90B001214FF40010FFF724FC5F
:1011340000212846FFF714FA2846FFF75FF94FF01D
:1011440060630193174B00240293174B012603930A
:101154004023049340F2E22305934FF48063079302
:101164004FF4006308934FF4005309934FF48073D2
:101174000A934FF4003301A928460B9306940C9468
:101184000D960E940F94FFF7C1F931462846FFF7E8
:10119400E7F931462046FFF721F910B070BD00BFD2
:1011A4008860024008740040AC53000808B5002170
:1011B4000448FFF7D5F9BDE8084000210846FFF7C9
:1011C4000DB900BF8860024018B10E210248FFF734
:1011D4001ABD1021FAE700BF00100040704700005C
:1011E40070B5054605240B4E00222946304602F010
:1011F400F1FB38B14378007840EA032000B210F1E3
:10120400630F05D1013C14F0FF04EDD16FF06200CF
:1012140070BD00BF0054004008B5EE21A02237483D
:1012240002F0E4FCEE21354802F078FB28B10278A4
:10123400437843EA0223324A1360EE21A2222F4864
:1012440002F0D4FCEE212D4802F068FB28B10278AC
:10125400437843EA02232A4A5360EE21A422274812
:1012640002F0C4FCEE21254802F058FB28B10278B4
:10127400437843EA0223224A9360EE21A6221F48C0
:1012840002F0B4FCEE211D4802F048FB28B10278BC
:10129400437843EA02231A4AD360EE21A82217486E
:1012A40002F0A4FCEE21154802F038FB28B10278C4
:1012B400437843EA0223124A1361EE21AA220F481B
:1012C40002F094FCEE210D4802F028FB28B10278CC
:1012D400437843EA02230A4A5361EE21AC220748C9
:1012E40002F084FCEE21054802F018FB28B10278D4
:1012F400437843EA0223024A936108BD0054004044
:101304000C0400202DE9FF4D482205468846774805
:10131400EE2102F06BFC00234FF6FE720293029B57
:10132400934240F3D480EE210022704802F05EFC28
:10133400EE216E4802F0EEFB002800F0CC804478E9
:101344000378240244EA034384781C435822EE21A0
:10135400664802F04BFC00234FF6FE720393039B96
:10136400934240F3BA80EE210022604802F03EFC32
:10137400EE215E4802F0CEFB30B1437802781B02C6
:10138400807843EA02431843594A5369D2F818E073
:10139400A0EB0323AEFB0301DF170EFB07110028AC
:1013A40071F10006964603DA0027524E80197941FE
:1013B400DEF81060C20D83FB0667002E42EA41226C
:1013C40077F1000102F5FA6202DA3F3647F10007CD
:1013D400B00940EA8760B9114FF40037DEF80860BD
:1013E400E7FB0601CDE90001DEF80C0083FB0001F8
:1013F400002871F1000602DA7F3041F100014FEA62
:10140400D01A4AEA416A4FEAE11B4FF48031DEF810
:101414000400B2F5FA6FE1FB00AB62DA83FB03016F
:10142400002871F1000304DA6FF0004600278019E8
:1014340079413D234FEAD07E4EEA410EA2F5FA618E
:101444004B4348004B4341432B48CEF1000E8242AC
:101454004FEA231308DA02F2DC50C0EB001600FB5B
:101464000633C60000FB0611BAEB010A6BEBE17B05
:10147400AAFB040104FB0B11002871F1000403DA38
:1014840000271E4E80197941460D46EAC1264F15A4
:10149400DDE90001C01A61EBE371301A67EB010169
:1014A400002871F1000304DA47F6FF76002780195B
:1014B4007941C30B43EA4143642193FBF1F3A2EB6B
:1014C4000E022B80A8F8002004B0BDE8F08D029B2A
:1014D4000133029323E7044638E7039B0133039364
:1014E4003DE700210B468E46BEE700BF0054004096
:1014F4000C040020FFFF7F0024FAFFFFFFFF1F0002
:101504000023C0F80031C0F804317047D0F804312A
:10151400D0F800219A421FBF5A1CC0F80421DBB244
:10152400C35C1ABF00200B7001207047D0F8003153
:10153400D0F804219A1AFF2A9FBF5A1CDBB2C0F8C4
:101544000021C15494BF022000207047012808B52F
:101554000BD007D302280BD101F07DF8003018BF5F
:10156400012008BD01F01AFEF8E702F06DF9F5E775
:10157400012008BD012808B50CD008D302280CD1DD
:1015840001F06CF808B9002008BD032008BD01F083
:1015940052FAF7E702F05BF9F4E7012008BD10B551
:1015A4000446012C084611461A460BD007D3022CD8
:1015B4000BD101F056F8003018BF012010BD02F025
:1015C40027F9F8E702F046F9F5E7042010BD10B555
:1015D4000446012C084611461A460BD007D3022CA8
:1015E4000BD101F041F8003018BF012010BD02F00A
:1015F4003BF8F8E702F031F9F5E7042010BD0000EC
:1016040000487047C0B3493408B50346012B084667
:1016140011460BD007D3022B0BD101F028F8003070
:1016240018BF012008BD01F0D3F9F8E702F018F95A
:10163400F5E7042008BD01380A44914200D17047FF
:1016440011F8013B00F8013FF7E708B580B10368E2
:1016540073B11A7862B1D9888288914208D15878D6
:10166400FFF788FF10F0010F14BF0320002008BD0E
:10167400092008BDCA7E8B7E032843EA022301BFEA
:10168400487D0A7D42EA002243EA02431846704735
:1016940010B50A46044600F1340101234078FFF7EF
:1016A4007EFFC0B994F8332294F8323243EA02231D
:1016B4004AF65522934210D1D4F86A30084A23F0EE
:1016C4007F4393420AD0D4F8860020F07F40801AEA
:1016D40018BF012010BD032010BD022010BD00BFA3
:1016E40046415400F8B5036816461D78303D092D6F
:1016F4001ED85A783A2A1BD10233036000230B60A8
:10170400002D40F0ED807C4B1C68002C00F0EA803A
:101714000C60237873B16078FFF72CFFC70709D4F6
:10172400002E00F0E180400740F1E0800A20F8BD7F
:101734000025E3E7002020706070FFF707FFC10772
:1017440000F1D6800EB14207F0D400212046FFF705
:101754009FFF012840F0B08094F8F6310BB90D20BA
:10176400F8BDD4F8FA5120462946FFF791FF032823
:1017740000F0C0800028F2D194F8402094F83F3063
:1017840043EA0223B3F5007FE9D194F84B3094F88F
:101794004A2094F8440052EA032208BFA26D431E73
:1017A400012BE261E070DAD894F84160A670002E53
:1017B400D5D0731E3342D2D194F8463094F8457094
:1017C40047EA03273B072781C9D194F8481094F8C6
:1017D400473094F843E053EA012394F8421008BFD9
:1017E400636D51EA0E21BAD002FB00FE01EB171023
:1017F40070448342B3D31B1AB3FBF6F3002BAED071
:1018040040F6F576B34259D94FF6F576B3428CBF1C
:1018140003260226023329442844032EA3612562A9
:101824006162E0624CD1002F99D1216E9B00A162CC
:1018340003F2FF13B2EB532F91D34FF0FF33236125
:101844000023032EE3602CD1637194F8642094F890
:10185400653004F1340142EA03222A44626101231F
:101864006078FFF79CFEE0B994F8332294F83232A2
:1018740043EA02234AF65522934212D1626B1F4B6C
:101884009A420ED103F1FF53D4F8182203F5005302
:1018940020339A4201BFD4F82032E360D4F81C32DA
:1018A40023610020164A26701388207101339BB2ED
:1018B4001380E3802063F8BD002558E70126A9E7DB
:1018C400002F3FF44CAF7144022EA1624FEA430152
:1018D4001BBFC91803F001030B4603EB5103A7E731
:1018E4000B20F8BD0C20F8BD3046F8BD2846F8BDE5
:1018F4000320F8BD0120F8BD2804002052526141A4
:101904002C040020F8B5056B00F1340704460123CC
:101914002A4639464078FFF75AFEB0B9636A207107
:101924009D4201D20020F8BDE26913449D42F9D2E0
:10193400E678012EF6D9E36939461D442A46012387
:101944006078FFF744FE013EF3E70120F8BD037918
:101954000BB1FFF7D7BF18467047036B70B58B42C6
:1019640005460E4611D0FFF7F2FF044610B10124DC
:10197400204670BD0123324605F134016878FFF733
:101984000EFE0028F3D12E63F2E70024F0E710B531
:101994000446FFF7DCFF0346002850D12278032ACF
:1019A40045D16279002A42D004F134010A46206309
:1019B40004F50D70824243D1552384F83232AA23B0
:1019C40084F83332522384F8343084F83530612378
:1019D4004122722084F8363084F81B32236984F85B
:1019E400372084F81A22C3F3072284F81C3284F8BF
:1019F4001D221A0C1B0E84F81F32E36884F81E2281
:101A0400C3F3072284F8203284F821221A0C1B0E17
:101A140084F8180284F8190284F8222284F8233204
:101A2400626901236078FFF7D2FD0023637100220D
:101A340060781146FFF7E8FD003018BF012010BDA3
:101A440002F8013BB6E783690239023B99423DBF84
:101A54008378C06A01FB0300002070470129F8B5B0
:101A640006460D465DD9836999425AD20378022B02
:101A740029D0032B39D0012B07D101EB5107416A3F
:101A840001EB5721FFF769FF10B14FF0FF30F8BDAC
:101A9400716AC7F308030137334401EB5721304619
:101AA40093F83440FFF759FF0028EED1C7F3080735
:101AB4003E4496F83400EB0744EA00204CBF00098A
:101AC400C0F30B00F8BD416A01EB1521FFF745FF98
:101AD4000028DAD16D0005F4FF75354495F83530EA
:101AE40095F8340040EA0320F8BD416A01EBD511B2
:101AF400FFF733FF0028C8D1AD0005F4FE7505F1EA
:101B0400340333449878DA783544000440EA0260B8
:101B140095F834205B78104340EA032020F07040AD
:101B2400F8BD0120F8BD70B504460D46E18081681A
:101B3400012901D1022070BD03689A699142F9D24A
:101B4400B1B91A78032A01D1996A89B90022E260ED
:101B54001A89AA42EED99B6A03EB15132361236801
:101B640005F00F05343303EB45156561002070BDA6
:101B74009E783601B54207D2E1602068FFF763FF23
:101B840000EB15102061EAE72068FFF767FF431CAC
:101B9400014608D00128CDD923689B699842C9D24F
:101BA400AD1BADB2E6E7012070BD0129F8B50546CD
:101BB4000C46164672D9836999426FD20378022B78
:101BC4003AD0032B4AD0012B66D101EB5107416A6D
:101BD40001EB5721FFF7C1FE18BBC7F3080314F04C
:101BE40001042B4417BF93F83420F2B202F00F0122
:101BF40032011CBF02F0F0020A4383F834200123AF
:101C0400696A01372B7101EB57212846FFF7A5FEBE
:101C140038B9C7F308072F4434B1C6F3071287F85D
:101C2400342001232B71F8BD97F83420C6F3032622
:101C340022F00F023243F2E7416A01EB1421FFF76D
:101C44008CFE0028EDD1640004F4FF742C44C6F328
:101C5400072284F8346084F83520E2E7416A01EB16
:101C6400D411FFF77AFE0028DBD1A40004F4FE743B
:101C740004F134012944CB782C441B0603F070434F
:101C840043EA0602C2F3072384F834204B70130C92
:101C9400120E8B70CA70C4E70220C2E70220F8BD9E
:101CA400F8B505460F4679B9C668BEB183699E4248
:101CB40028BF01263446AB6901349C4211D3012E5E
:101CC4000ED800242046F8BDFFF7C8FE01280446BC
:101CD40030D9AB699842F5D33E46EBE70126E9E7F4
:101CE400022421462846FFF7B9FE48B1411C02D11F
:101CF4004FF0FF34E6E701281CD0B442DBD1E0E723
:101D04006FF0704221462846FFF74FFF80B947B96C
:101D14002B69EC605A1CD5D0013B2B6101236B71FC
:101D2400D0E7224639462846FFF73FFF0028EFD088
:101D34000128DDD00124C5E72DE9F843C588044610
:101D44000135ADB2884615B90420BDE8F8830369AE
:101D5400002BF9D015F00F0707D1C16801330361D7
:101D6400006859B90389AB42EED92368E58034335E
:101D740003EB471363610020BDE8F8838378013BDC
:101D840013EA1513F1D1FFF769FE0128064602D8BC
:101D94000220BDE8F883421C02D10120BDE8F8838B
:101DA400206883699E422AD3B8F1000FCCD0E16841
:101DB400FFF776FF0646002838D00128E8D0431CF8
:101DC400EBD02068FFF7C3FD0028E6D1236803F5B4
:101DD4000D723433934219D1226831461046FFF70D
:101DE40032FE4FF000084FF00109106320685FFADB
:101DF40088F2837893420CD8036B9B1A0363E660E2
:101E040031462068FFF71FFE2061AEE703F8010B9F
:101E1400E0E780F80490FFF775FD08F10108002859
:101E2400BBD12268136B01331363DFE70720BDE8DE
:101E3400F88300002DE9F8430B7804462F2B0D4658
:101E440001D05C2B00D101350026A6602B781F2B16
:101E540035D95C4E2B78AC462F2B05F10105F9D012
:101E64005C2BF7D0A0692021034600F10B029342BA
:101E74002CD14FF000084FF0080E454647460CF1B0
:101E8400FF3919F8013F0135202B29D92F2B27D0F1
:101E94005C2B25D02E2B7DD0C6450DD91A0644BF08
:101EA400803BF35C484948BF47F0030711F8012F12
:101EB400002A78D09342F9D10620BDE8F883314650
:101EC4002046FFF730FE6661BDE8F88303F8011B86
:101ED400CDE747F0020700F8083008F10108D0E721
:101EE400212B654434BF04230023B8F1000FE3D051
:101EF4000178E52904BF05210170BEF1080F04BF74
:101F0400BA00D7B207F00301012907F00C0208BF99
:101F140043F01003042A08BF43F00803C3720021EE
:101F24002046FFF700FED8B921692068FFF715FDA8
:101F3400B0B96269137893B1D37A19070AD4A36943
:101F440003F10B0E9E450BD012F8017B13F8011B15
:101F54008F42F7D000212046FFF7EEFEE3E704208E
:101F6400A369DB7A38B104282AD113F0040F08BF1F
:101F74000520BDE8F8835A0722D46169CB7ADB06D1
:101F840005D523681878FFF775FBA06062E7052084
:101F9400BDE8F883BEF1080F8ED1BA00F046D7B27F
:101FA4004FF00B0E6DE7A3F14102192A91D9A3F169
:101FB4006102192A9EBF203B47F00107DBB28AE782
:101FC400BDE8F88370590008EF59000838B50021BE
:101FD4000446FFF7A8FD054630BB21692068FFF7DA
:101FE400BCFC054600BB63691B78E52B08D03BB1FC
:101FF40001212046FFF7A0FEEDE703F8011B09E0ED
:1020040021692068FFF7A9FC054668B92946636978
:1020140003F120029A42F0D10B22A1696069FFF713
:102024000AFB012223681A71284638BD0129F8B534
:1020340004460D4601D80220F8BD83699942FAD2BC
:102044000127A3699D4205D229462046FFF706FDD4
:10205400064608B90020F8BD0128ECD0411C0DD07B
:10206400002229462046FFF7A0FD40B923693546E2
:102074005A1C1EBF013323616771E2E70120F8BDDA
:1020840048B9064B1A6802B1107009B100220A70EF
:102094001960002070470B20704700BF28040020FF
:1020A4002DE9F0438DB001911646054600287FD0F6
:1020B400002302F01E02036005A901A8FFF712FB2A
:1020C40000284AD102AB019905A80B93FFF7B2FE91
:1020D4000A9C10B9002C08BF062016F01C0F06F04D
:1020E4001F0745D000283BD0042836D105A8FFF7A8
:1020F4006DFF90BB0A9C47F008073E0741D5FFF7E8
:102104007FFA0026C0F30723A073E373DDF814807D
:10211400030C000E2374E67226776677A677E677BB
:10212400607498F800002146FFF7A4FA0123A6760C
:10213400E6762675667588F80430064608B30146C7
:102144004046D8F83090FFF771FF30B90598013E4A
:10215400C6604946FFF701FC98B10DB0BDE8F083B5
:10216400E37A13F0110F27D17307C6D50820F4E7DB
:102174000028F2D1E37AD8061CD4B10701D5DA07D6
:102184001AD4059E3B07336B48BF47F02007EB6129
:102194002C62AF7130782146FFF76CFA2861002079
:1021A400E369A860EB60F388A8612E60AB80D4E794
:1021B4000920D2E70420D0E70720CEE72DE9F74F26
:1021C4009B460023CBF80030044689461746FFF7A8
:1021D4003CFA0646002835D1A379180631D499076C
:1021E40040F1B580E368DF4203D204F12403019394
:1021F4004FB9A368E268934200F2A780A37943F041
:102204002003A3711EE0A268C2F30803002B40F070
:10221400898020688378013B03EA522313F0FF038B
:10222400009320D192B9216929B9FFF739FD0146FC
:1022340020610029DDD00129A3790CD163F07F034B
:10224400A3710226304603B0BDE8F08F6169FFF741
:1022540027FD0146EDE74A1C04D163F07F03A37117
:102264000126EFE76161A3795B060CD520680123A1
:10227400A26901994078FFF7AAF9A3790028ECD163
:1022840023F04003A371D4F800A061695046FFF71E
:10229400DAFB08B9A379D1E7009B7D0A00EB0308B8
:1022A4002ED0009A9AF802302A449A4288BF009AA3
:1022B400494688BF9D1AEBB242469AF80100FFF7DF
:1022C40086F908B1A379C8E7A169A1EB08018D4299
:1022D4000AD94FF4007209EB41210198FFF7ABF9D9
:1022E400A37923F04003A3716D02A368A9442B448E
:1022F400A360DBF800307F1B2B44CBF8003077E77A
:10230400A36998450CD0A268E3689A4208D20123D5
:10231400424601999AF80100FFF741F90028D1D10A
:10232400C4F81880A0684946C0F30800C0F50075D9
:10233400BD4228BF3D4624302A462044FFF77BF99E
:10234400A37943F04003A371CFE7E36056E7072680
:1023540078E770B50446FFF778F9002847D1A379E8
:102364009A0644D55B060DD520680123A26904F1C1
:1023740024014078FFF72BF9002837D1A37923F003
:102384004003A371E1692068FFF7E7FA064670BBD2
:10239400256AEB7A43F02003EB72E3682B77A38979
:1023A4001B0A6B77E389AB77E37BEB772369AB7627
:1023B400C3F307221B0C2B751B0A6B75EA76FFF718
:1023C4001FF9C0F30723A875EB75030C000E2B76D9
:1023D4006876AE74EE74A379206823F02003A371A9
:1023E40001230371BDE87040FFF7D1BA012070BD2D
:1023F40010B50446FFF7ADFF00B9206010BDF8B575
:1024040004460D46FFF721F90646002833D1A27988
:10241400170660D4E368AB4203D212F0020F08BF80
:102424001D460022A368A2603DBBA368E2689342F4
:1024340021D9E360A37943F02003A3711BE00025B5
:10244400A368C3F30803002BEFD0A2699542ECD034
:10245400A37904F1240713F0400F63D0206801230B
:1024640039464078FFF7B3F8A379002857D00126FE
:1024740063F07F03A3713046F8BD206887787F023C
:10248400F3B1013B6A1EB2FBF7F2B3FBF7F18A42E8
:1024940016D37A4213406169A360ED1A0029CED0A5
:1024A400BD4221D8A3682B44A360C5F30803002BC5
:1024B400C5D02068FFF7C7FA48B100EB5525BFE740
:1024C400216979B9FFF7ECFB0128014605D1A3790D
:1024D40063F07F03A3710226CDE7013001D1A37914
:1024E400C5E721616161D9E7A37920689A0705D519
:1024F400FFF7D6FB014620B93D46D3E7FFF7AEFA16
:1025040001464B1CEBD00129E1D923689B69994210
:10251400DDD2A36861613B44A360ED1BC0E723F0F7
:102524004003A371206801232A4639464078FFF707
:1025340036F80028D3D1A56177E72DE9F34714468F
:1025440002AB43F8040D8846002221461846FFF7E3
:10255400C9F8054638B92468A7692369BA1E9342A5
:1025640005D8C8F80030284602B0BDE8F08794F8D2
:102574000090B9F1010F19D10227064639462046C9
:10258400FFF76CFA431C38D0012838D000B9013663
:10259400A36901379F42F1D3B9F1030F08BF0123A7
:1025A400266108BF6371C8F80060DCE70346024691
:1025B4000646616A52B9204601F1010AFFF7CDF9D6
:1025C400F8B951464FF4007204F13403B9F1020F23
:1025D4000BD193F801E01878023A50EA0E2008BFB4
:1025E40001360233013FE5D1D6E71868043A30F0EA
:1025F400704008BF01360433F4E70125CCE7022517
:10260400CAE70546C8E70A2837B504460D4602D18D
:102614000D20FFF7F8FF01AB0122694628468DF82B
:102624000040FFF7CBFD019B012B0CBF01204FF0B5
:10263400FF3003B030BD70B505460E460446601B3E
:1026440014F8013B2BB118463146FFF7DCFF431C5D
:10265400F5D170BD70474FF0FF3070474FF0FF3039
:1026640070474FF0FF3070474FF0FF3070474FF026
:10267400FF30704710B50D4B5C6B14F0450FFBD069
:10268400630704D50420FEF75FFA032010BD14F09D
:10269400010404D00120FEF757FA012010BD40F2D6
:1026A400FF50FEF751FA204610BD00BF002C014038
:1026B40038B50546384B5C6B14F0450FFBD0610709
:1026C40004D50420FEF740FA032038BD14F00104B9
:1026D40004D00120FEF738FA012038BDFEF7F4F9E2
:1026E400A84201D0102038BD40F2FF50FEF72CFA6A
:1026F4002046FEF7EFF9294B03404BB3002829DBB2
:10270400420029D4830029D4C50029D4040129D442
:10271400410129D4C20129D4030229D44502E1D4B8
:10272400840227D4C10227D4020327D4430327D425
:10273400850327D4C40327D4010427D4420427D40F
:10274400830427D410F0080F0CBF00201A2038BDD2
:10275400184638BD1C2038BD092038BD0A2038BDB4
:102764000B2038BD0C2038BD0D2038BD0E2038BDDF
:102774000F2038BD112038BD122038BD132038BDBC
:10278400142038BD152038BD162038BD172038BD9B
:10279400182038BD192038BD002C014008E0FFFD89
:1027A4002DE9F347002310254FF008094FF04008A6
:1027B4004FF48067474C06462046009301936560BA
:1027C400E360C4F80090C4F808802761FEF766F956
:1027D4002846FFF76DFF0546002844D14FF0370A1D
:1027E4003D4BE0601B6820461B042360C4F804A032
:1027F400C4F808802761FEF751F95046FFF758FFE7
:10280400054680BB4FF0FF33344880E8080230238C
:1028140083600223C36001234FF0330943610561E0
:10282400FEF764F920462560E560C4F80490C4F816
:1028340008802761FEF732F94846FFF739FF05465D
:1028440088B940F22A67DFF89880ADF10404D8F81B
:1028540034303B420BD00820FEF786F990B10820B3
:10286400FEF772F90425284602B0BDE8F0874FF45C
:102874000010FEF779F90028E9D0FEF74DF944F885
:10288400040FE4E70220FEF76FF920B10220FEF7FF
:102894005BF90225E7E72020FEF766F920B1202046
:1028A400FEF752F90625DEE74FF40070FEF75CF9F7
:1028B40028B14FF40070FEF747F90725D3E740F23B
:1028C400FF50FEF741F9009B1BBA7360019B1BBAD2
:1028D4003360C8E78807002058040020100800204F
:1028E400002C0140F7B50446002000900190FEF74B
:1028F400F1F8810144D46846FFF752FF28BB012C4C
:10290400019B24D15A033DD5372540274FF48066D7
:102914001D4B1E4C1B68E0601B0420462360656051
:10292400A7602661FEF7BAF82846FFF7C1FE60B932
:10293400022323600625E06020466560A7602661C7
:10294400FEF7ACF82846FFF7B3FE03B0F0BDDB0397
:1029540018D5372540274FF480660B4B0B4C1B686A
:10296400E0601B04204623606560A7602661FEF7D3
:1029740095F82846FFF79CFE0028E6D12060D9E7A9
:102984000E20E2E72520E0E7580400208807002015
:1029940038B50D4B05461B680C481B0403604023E7
:1029A400836000230D24C3604FF48063446003619B
:1029B400FEF774F82046FFF77BFE044610B9FEF7D5
:1029C40089F82860204638BD580400208807002074
:1029D400022807D003280AD0012806D14FF4003377
:1029E4000B6002E04FF400730B800020704720233B
:1029F400F6E70000012307B54FF4807106488DF80F
:102A04000730FDF747FE10B100238DF807309DF81D
:102A1400070003B05DF804FB00000240002307B583
:102A24008DF80730FFF7E6FF8DF807009DF80700E3
:102A340003B05DF804FB08B5FFF7DCFF10F1FF30CD
:102A440018BF4FF0FF3008BD002307B50193FFF70F
:102A5400D1FF012803D0FF2003B05DF804FB01A8D7
:102A6400FFF796FF0028F6D10198C0F34320F3E75F
:102A740008B5FFF7E9FF042804D0FF280CBF0220A3
:102A8400012008BD002008BD2DE9F3477623002569
:102A940079488DF807500375056045608560C56009
:102AA4000561FDF7CFFF0320FDF7EAFF0120FDF7E5
:102AB400E1FF4FF48063714C204625606560A5609A
:102AC400E56023614FF48035FDF7E8FF8020FEF7D1
:102AD4004BF828B140F2FF50FEF736F8002302E02D
:102AE400013DF3D103238DF807309DF8073003F03F
:102AF400FF022BB19DF80700C0B202B0BDE8F08719
:102B040008214FF4D570402384E80B004FF4806310
:102B14005A48E2602361FDF7C1FF4FF480325849FF
:102B24004B6B13F0450F79D1002A74D10420FEF7C2
:102B34000BF803238DF807309DF80730002B7AD16A
:102B440001224FF080454F4B1A6000233726402264
:102B540084E84800E3604FF4806348482361A2603E
:102B6400FDF79CFF3046FFF7A3FD8DF807009DF8A5
:102B7400073003F0FF07002BBCD145F00045DFF818
:102B8400FC8045F4801500234FF0370A4FF04009CC
:102B94004FF48066404684E80804E360C4F8089073
:102BA4002661FDF77BFF5046FFF782FD8DF8070095
:102BB4009DF8073003F0FF02002B9BD129234046E8
:102BC400E26025606360C4F808902661FDF766FF43
:102BD4002B4A566B16F0450FFBD016F004063DD079
:102BE4000420FDF7B1FF03238DF807309DF807306B
:102BF40003F0FF00002B7FF47DAFFDF76BFF00288F
:102C040007F101074FF6FF732EDB9F42BBD11B2355
:102C14008DF807306EE7013A4B6B82E7002A85D0C6
:102C240013F0040582D113F0400383D04020FDF754
:102C34008BFF2B467EE7402300253726A3604FF405
:102C440080630E48236184E86000E560FDF726FF99
:102C54003046FFF72DFD8DF8070076E740F2FF5070
:102C6400FDF772FF3346BFE79F42D0D0430042BF17
:102C74000222044B1A603DE7F80700208807002071
:102C8400002C01405004002038B5FDF7FFFE002859
:102C940000F090804A4D2B68042B21D0002302229F
:102CA400484803604260C360C0224FF4806382607E
:102CB4000361FDF7F3FEFFF7DDFC0446002855D160
:102CC400FDF708FF404C20600420FDF703FF60601F
:102CD4000820FDF7FFFEA0600C20FDF7FBFEE0607E
:102CE4002B68022B2AD9062B28D001232A68042A10
:102CF40064D0364A334813601B04036009234360DD
:102D0400C02383600023C3604FF480630361FDF735
:102D1400C5FEFFF7AFFC044640BBFDF7DBFE2C4DC0
:102D240028600420FDF7D6FE68600820FDF7D2FE77
:102D3400A8600C20FDF7CEFEE86017E00023032214
:102D4400204803604260C36040224FF48063826085
:102D54000361FDF7A3FE1F4B5C6B14F0450FFBD022
:102D6400600705D50420FDF7EFFE0324204638BD97
:102D740014F0010404D00120FDF7E6FE0124F5E778
:102D8400FDF7A2FE032801D01024EFE740F2FF5024
:102D9400FDF7DAFE2046FDF79DFE10F4604F01D1E9
:102DA400030CA3E7810407D44204EDD403049CD5A7
:102DB4000F24DBE72524D9E71324D7E70024D5E73C
:102DC400500400208807002030040020580400200C
:102DD40040040020002C01400346A44A2DE9F0439E
:102DE4001568A34AA34C126880F85650A0F85420E2
:102DF4002268012D4FEA1260C1B24FEA9116C0F366
:102E0400830001F003011E7058709970C2F30741EA
:102E1400D970C2F3072119716168D2B25A714FEAAD
:102E240011624FEA0212DA80DA88C1F3074092B2E3
:102E340042EA101200F00F00DA8018724FEA1120F3
:102E4400C2B24FEAD2165E72C0F380169E72C0F30D
:102E54004016DE72C0F300161E734FF000065E7358
:102E640000F2E180800200F4406018611A69890070
:102E740001F47F711143A26819611D69100EC1B27A
:102E840045EA9115C0F3C20001F007011D611875F0
:102E94005975110CC1F342109875C1F38200D875AD
:102EA4000120490001F006011976197EC2F30722B8
:102EB40041EAD21119761D691E7E197A023600FA8A
:102EC40001F1B040A0FB0189C71701FB07991965FF
:102ED400691CA8FB016701FB0977C3E91267C2F308
:102EE4008011520002F07E0259769A76997E227AF7
:102EF40041EAD2119976E16802F07F02DA760A0E8D
:102F0400D0091877C2F341105877C2F382009200B7
:102F140002F00C029877DA77DC7F080CC2B244EA3C
:102F24009214C0F34010DC7783F82000002002F0F4
:102F3400010283F8210083F822200A0AD4B2E509A9
:102F440083F82350C2F3801583F82450C2F340154C
:102F540083F8255004F00304C2F30015C2F3810280
:102F640083F8265083F8272083F828400124424D13
:102F7400C1F3460283F829202A6883F82A40110EF7
:102F840083F82C10C2F307410902D985D98DC2F305
:102F9400072689B231431206D9851A636A68196B08
:102FA400160E41EA064119631E6B110A01F47F41B2
:102FB400314319631E6BC2F307213143D2B2196343
:102FC40083F83420AA68110E83F83510110C090611
:102FD40099639E6B110201F47F0131439963996BEC
:102FE400120292B20A439A63996BEA6841EA126147
:102FF400996393F83C50110CC1F30316090235434D
:1030040001F4706183F83C50D987D98FC2F3072546
:1030140089B22943C2F34602D98783F8402083F852
:103024004140BDE8F083022D7FF459AF090401F457
:103034007C111961A2681969100E41EA0021196115
:103044001869C2F307410143196100211869C2F3E9
:103054000722013041F10001C90441EA5031D96429
:103064004FF40071C0049864196538E750040020D7
:1030740058040020400400203004002038B5174BC9
:1030840005461B68032B26D0022B22D8B0F5805F9F
:1030940021D0B0F5006F0FD10120FFF723FC0446C7
:1030A40040B90F480475046044608460C5600461DD
:1030B400FDF7C8FC204638BD0020FFF713FC04468A
:1030C4000028F7D106480475046044608460C46035
:1030D400EDE70024EEE72724ECE700BF50040020CE
:1030E400F80700204022094B10B59A6000220724FB
:1030F400DA604FF48062186018465C601A61FDF76C
:10310400CDFC2046BDE81040FFF7D2BA8807002066
:10311400002313B58DF80730FDF786FCFFF7B4FCE8
:103124008DF807009DF8073023B19DF80700C0B261
:1031340002B010BDFFF7A8FD8DF807009DF8072029
:1031440002F0FF03002AF0D11248134C0375036008
:1031540043608360C3600361FDF774FC2046FFF79E
:103164003BFE8DF807009DF8073003F0FF0133B9EB
:10317400B4F854000004FFF7B5FF8DF807009DF87C
:103184000730002BD1D14FF40060FFF777FF8DF8A3
:103194000700CAE7F8070020A007002008B5FFF7DA
:1031A400B7FF003018BF0120404208BD10B500230E
:1031B4000C240848402280E81800C3604FF4806360
:1031C40082600361FDF76AFC2046BDE81040FFF70A
:1031D4006FBA00BF880700201A4A4FF0FF33114628
:1031E40070B51948194C156825B9056815B92578BD
:1031F40005B9FBB900234FF0FF350B60144B5A6B34
:10320400920400D5C5B9134E3368012B16D1FFF7CC
:10321400CDFF0023044633600DB900B9042440F205
:10322400FF50FDF791FC094B1A780AB11C78E4B2FF
:10323400204670BD013BD6E7013DE0E7002DEDD00F
:103244000024ECE7540400206004002064040020FF
:10325400002C01405C0400201A4A4FF0FF33114651
:1032640070B51948194C156825B9056815B925783C
:1032740005B9FBB900234FF0FF350B60144B5A6BB3
:10328400D20400D5C5B9134E3368012B16D1FFF70C
:103294008DFF0023044633600DB900B9042440F2C5
:1032A400FF50FDF751FC094B1A780AB11C78E4B2BF
:1032B400204670BD013BD6E7013DE0E7002DEDD08F
:1032C4000024ECE75404002060040020640400207F
:1032D400002C01405C04002010B54FF48070FDF711
:1032E40039FC214C78B100234FF480702370FDF732
:1032F4003DFC01221D4B1A6000214CF23A30FDF7CF
:1033040017FC207810BD0220FDF724FC28B1022010
:10331400FDF72CFC02232370EEE70820FDF71AFCCE
:1033240020B10820FDF722FC0423F4E72020FDF758
:1033340011FC20B12020FDF719FC0623EBE7102037
:10334400FDF708FC20B11020FDF710FC0523E2E78F
:103354004FF40070FDF7FEFB0028CDD04FF4007051
:10336400FDF704FC0723D6E7640400206004002072
:10337400064B1B6813F0C05F07D00122044B4FF0CB
:10338400C25104481A60FDF735B970470064024021
:103394005404002058640240F7B52E4C01210D203E
:1033A400FDF7EAFA20460C220821FDF77DF92046B4
:1033B4000C220921FDF778F920460C220A21FDF799
:1033C40073F920460C220B21FDF76EF90C22224FD3
:1033D40011462046FDF768F90C2238460221FDF714
:1033E40063F94FF4706301250026009302236946B4
:1033F40020468DF805308DF804308DF806608DF880
:103404000750FDF7F9F80423694638460093FDF7A1
:10341400F3F84FF480536946204600938DF8076013
:10342400FDF7EAF84FF4807369460C4800938DF871
:1034340004608DF80750FDF7DFF829464FF400606B
:10344400FDF7B2FA29464FF48000FDF795FA03B070
:10345400F0BD00BF00080240000C02400000024022
:1034640013B54FF4C060FCF7B3FE312301248DF88B
:103474000430002301A88DF805308DF806308DF84E
:103484000740FCF7AFFE3B2301A88DF804308DF80C
:103494000540FCF7A7FEFFF77FFF02B010BD000058
:1034A40070B5224C90B006460D4620464FF0FA51B6
:1034B400FDF7A0F800212046FDF752F82046FCF75E
:1034C4009DFF4FF000630193194B4FF48062029308
:1034D40040230493002306930A934FF440330B9341
:1034E40004230C93032307920D934FF480524FF45B
:1034F400000308920E934FF480424FF4001301A985
:1035040020460F93099203960595FCF7FFFF0122CD
:1035140020461021FDF736F820462021FDF729F832
:1035240001212046FDF71CF810B070BD586402401C
:10353400802C01402DE9F84F1746002201248046D3
:103544001D46414BBDF828601A70404BDDF82CA095
:103554001A603F4B21461C603E4B40F22A30DA622F
:10356400FDF7E6FA0AFB06F14046FFF799FF20460D
:10357400FDF7D8FA384B4FF040091B684FF48068C8
:10358400022B02BF7F0A47EAC5574FF40076102585
:103594000023324C20466560E3602660C4F808903E
:1035A400C4F81080FDF77AFA2846FFF781F805463B
:1035B400002846D14FF0370B294BE0601B682046AA
:1035C4001B042360C4F804B0C4F80890C4F8108045
:1035D400FDF764FA5846FFF76BF8054688BB4FF0D1
:1035E400170BE0602046C4F800A0C4F804B0C4F887
:1035F4000890C4F81080FDF751FA5846FFF758F8C0
:103604000546F0B927601927E06020466760C4F8D2
:103614000890C4F81080FDF741FA3846FFF748F8DF
:10362400054670B94FF0FF330E4806FB0AF60360F7
:103634009023836001234660C56005614361FDF703
:1036440055FA2846BDE8F88F640400206004002081
:103654005C040020002C0140500400208807002056
:1036640058040020100800204FF40072012313B501
:103674008DE80C004A020023FFF75CFFFFF7ECFD26
:103684000446FFF7F5F90028FBD1201C18BF0120E0
:10369400404202B010BD000070B5224C90B0064606
:1036A4000D4620464FF0FA51FCF7A4FF00212046B6
:1036B400FCF756FF2046FCF7A1FE4FF00063019390
:1036C400194B4FF4806202930023049306930A93E8
:1036D4004FF440330B9304230C93032307920D936D
:1036E4004FF480524FF4000308920E934FF480423B
:1036F4004FF4001301A920460F93099203960595F0
:10370400FCF704FF012220461021FCF73BFF204672
:103714002021FCF72EFF01212046FCF721FF10B0E9
:1037240070BD00BF58640240802C01402DE9F04771
:1037340016460022012481461F462E4BBDF8205018
:103744001A702D4BDDF824801A602C4B21461C6026
:103754002B4B40F22A30DA62FDF7EAF908FB05F157
:103764004846FFF799FF2046FDF7DCF9254B4FF05B
:10377400100A1B684FF04009022B02BF760A46EA82
:10378400C7564FF4007500234FF480671E4C204643
:10379400C4F804A0E3602560C4F808902761FDF72D
:1037A4007DF95046FEF784FF824600BB4FF0FF339D
:1037B400164805FB08F50360902383600223C36069
:1037C400012345601225C0F810A04361FDF78EF96E
:1037D400204626606560C4F80890C4F80CA02761F0
:1037E400FDF75CF92846BDE8F047FEF761BFBDE888
:1037F400F08700BF64040020600400205C04002003
:10380400002C0140500400208807002010080020EC
:103814004FF40072012313B58DE80C004A02002313
:10382400FFF784FFFFF7D8FC0446FFF721F90028CF
:10383400FBD1201C18BF0120404202B010BDFFF78D
:103844004BBDFFF795BD70474FF0FF3070474FF009
:10385400FF3070474FF0FF3070474FF0FF30704734
:103864004FF0FF3070470000F0B5012187B00446E7
:10387400244F0220FDF780F801214FF40010FDF7DA
:1038840087F8384604220621FCF70EFF0422384646
:103894000721FCF709FF0223012500268DF80430D7
:1038A400C0236946384600938DF806508DF80760AA
:1038B4008DF80560FCF7A0FE2046FCF707FF4FF4E7
:1038C4008063ADF812304FF48043ADF8143044F601
:1038D400206302934BF6FF73ADF80E30882302A9E0
:1038E4002046ADF81030ADF80C60FCF71FFF2946F8
:1038F4002046FCF783FF29462046FCF7ACFF07B0BF
:10390400F0BD00BF0004024010B504460121FCF7DD
:103914008DFF2046BDE81040FFF7A6BFF8B50E4660
:103924000121044640F20155FCF774FF254F394646
:103934002046FCF7A1FFA0B3314601222046FCF744
:1039440081FF40F20155204E31462046FCF794FF9A
:1039540070B340F20155238B1C4E31462046FCF7D0
:103964008BFF40B32046FCF784FF194D00212870DB
:103974002046FCF770FF40F20156144F39462046AA
:10398400FCF77AFFD0B101212046FCF74FFF204617
:10399400FCF76FFF012168702046FCF75CFF0C48C0
:1039A400F8BD013DC3D12046FFF7AEFF0020F8BDAE
:1039B400013DC9D1F7E7013DCFD1F4E7013EDDD1A7
:1039C400F1E700BF010000100200001040000010E9
:1039D400650400202DE9F0410E46012104461746F6
:1039E40040F20155FCF716FFDFF8188141462046E6
:1039F400FCF742FF002868D000212046FCF72BFF8B
:103A0400002231462046FCF71DFF40F20155DFF845
:103A1400F88041462046FCF72FFF00285DD0394648
:103A24002046238B40F20155FCF721FF344F3946E1
:103A34002046FCF721FF002852D001212046FCF744
:103A4400E9FE40F201552F4F39462046FCF714FF9A
:103A5400002848D0314601222046FCF7F3FE40F20C
:103A64000155294E31462046FCF706FF00283DD07B
:103A740001212046238B40F20155FCF7ECFE234E36
:103A840031462046FCF7F8FE98B32046FCF7F1FED9
:103A94001F4D002128702046FCF7DDFE40F2015640
:103AA4001A4F39462046FCF7E7FE28B30121204689
:103AB400FCF7BCFE2046FCF7DCFE012168702046C2
:103AC400FCF7C9FE1248BDE8F081013D8ED12046C5
:103AD400FFF71AFF0020BDE8F081013D99D1F6E718
:103AE400013DA4D1F3E7013DAED1F0E7013DB9D1E9
:103AF400EDE7013DC4D1EAE7013ED2D1E7E700BFDB
:103B0400040000100100001002000010400000102A
:103B140065040020F8B50E460121044640F2015523
:103B2400FCF778FE2D4F39462046FCF7A5FE002809
:103B340041D0314601222046FCF784FE40F2015573
:103B4400274E31462046FCF797FE00283AD040F233
:103B54000155238B234E31462046FCF78DFEA0B33E
:103B64002046FCF786FE40F201561F4D1D4F28707B
:103B740039462046FCF780FE50B32046FCF779FE18
:103B8400002168702046FCF766FE40F20156154F8E
:103B940039462046FCF770FEE8B101212046FCF7C7
:103BA40045FE2046FCF765FE0121A8702046FCF77F
:103BB40052FE0D48F8BD013DB5D12046FFF7A4FEE5
:103BC4000020F8BD013DBCD1F7E7013DC3D1F4E7C6
:103BD400013ECDD1F1E7013EDAD1EEE7010000105C
:103BE4000200001040000010650400202DE9F0419F
:103BF4000F4601210446164640F20155FCF70AFE21
:103C0400DFF8948041462046FCF736FE60B339461F
:103C140000222046FCF716FE40F201551B4F3946A0
:103C24002046FCF729FE38B340F20155238B184F88
:103C340039462046FCF720FE08B331462046FCF7FF
:103C440016FE40F20155124F124E39462046FCF73B
:103C540013FEB8B131462046FCF70EFE90B10121A7
:103C64002046FCF7E3FD04E0013DCBD12046FFF7FD
:103C74004BFE0020BDE8F081013DD0D1F6E7013DC7
:103C8400D6D1F3E7013DE0D1F0E700BF0200001018
:103C940080000010040000100100001030B505463B
:103CA400ADF50B7D002000F0F5FC38B101240020B7
:103CB40000F00AFD20460DF50B7D30BD02220749B8
:103CC40001A800F009FD04460028EFD1294601A807
:103CD40000F02BFD01A800F020FDE8E7FF590008E3
:103CE400024A136801331360704700BF6C0400205C
:103CF400FEE7FEE7FEE710B50446002000F0BFFC37
:103D040020B92046BDE81040FFF7C8BF012010BD10
:103D14002DE9F0414FF4FA60DAB000F0C3FD044637
:103D240000F04AFDFDF798F9FDF760F8FDF7C6F8D5
:103D340000F0B6FAD948FFF797FDFDF74FFAFDF703
:103D44006BFA00F093FC0CA8FCF7D2FD0D9BB3F1C9
:103D5400807F0AD2F021D24A013B5360D14B83F8D1
:103D640023100023936007231360002000F06AFDF2
:103D74004CB1CD493AA800F01BFE3AA800F072FD00
:103D84003AA8FDF721F916A800F052FA28A800F085
:103D94004FFAC64B10AC03F118052246186859684F
:103DA400083303C2AB421446F7D110A800F05AFD01
:103DB40010A8FDF709F90027DFF8048300F08DFD52
:103DC400FF2400F0F7FB012803D0013C14F0FF04AA
:103DD400F7D116A800F01CFC9DF88B30302B00F0B6
:103DE4001B8216A928A800F00FFC302316AD8DF80D
:103DF400D33016A800F073FDD8F800300646462BE1
:103E040007D93AA8FDF7E0F800F0A6FA0023C8F8AD
:103E14000030B74200F0FE810A24B6FBF4F704FB3D
:103E24001767002F40F0F6819020FDF7D9F9A04ADA
:103E340043B20421ADF8040008A800F085FD9220E7
:103E4400FDF7CEF99A4A43B20421ADF8040009A85B
:103E540000F07AFD9620FDF7C3F9954A43B2042198
:103E6400ADF804000AA800F06FFD9E20FDF7B8F934
:103E74008F4A43B2ADF8040004210BA800F064FD9E
:103E840001A90DF10600FDF73DFABDF80630894A97
:103E9400052102A800F058FDFF210B20FCF7FCFFD0
:103EA4004FF47A63434340F66630B3FBF0F3814A40
:103EB400ADF8063007219BB204A800F045FDFF21B0
:103EC4002046FCF7E9FF4FF4FA53434340F65140D0
:103ED400B3FBF0F35AAC774A0721ADF8063006A8D5
:103EE4009BB200F031FD04F8807D2046FCF768F9B0
:103EF4007149C0F18002204600F062FD2046FCF7C3
:103F04005FF96E49C0F18002204600F059FD204659
:103F1400FCF756F916A9C0F18002204600F050FDC6
:103F24002046FCF74DF96549C0F18002204600F0B7
:103F340047FD2046FCF744F905F10B01C0F180026E
:103F4400204600F03DFD2046FCF73AF95B49C0F1FC
:103F54008002204600F034FD2046FCF731F905F1DB
:103F64001701C0F18002204600F02AFD2046FCF72C
:103F740027F95249C0F18002204600F021FD204675
:103F8400FCF71EF905F12401C0F18002204600F07F
:103F940017FD2046FCF714F94849C0F18002204679
:103FA40000F00EFD2046FCF70BF905F13001C0F1DD
:103FB4008002204600F004FD2046FCF701F93F4949
:103FC400C0F18002204600F0FBFC2046FCF7F8F824
:103FD40005F13301C0F18002204600F0F1FC2046D7
:103FE400FCF7EEF83549C0F18002204600F0E8FC09
:103FF4002046FCF7E5F808A9C0F18002204600F04D
:10400400DFFC2046FCF7DCF82C49C0F18002204696
:1040140000F0D6FC2046FCF7D3F809A9C0F18002D1
:10402400204600F0CDFC2046FCF7CAF82349C0F135
:104034008002204600F0C4FC2046FCF7C1F80AA91F
:10404400C0F18002204600F0BBFC2046FCF7B8F823
:104054001A49C0F18002204600F0B2FC2046FCF769
:10406400AFF80BA9C0F18002204600F0A9FC20465D
:10407400FCF7A6F81149C0F18002204600F0A0FC2C
:104084002046FCF79DF802A9C0F18002204600F00A
:1040940097FC2046FCF794F814E000BF005400405D
:1040A40010E000E000ED00E00D5A0008505A00084E
:1040B4002B5A00082E5A0008325A00083D5A0008AC
:1040C4006C0400205549C0F18002204600F078FCC1
:1040D4002046FCF775F804A9C0F18002204600F0E0
:1040E4006FFC2046FCF76CF84C49C0F18002204676
:1040F40000F066FC2046FCF763F806A9C0F18002D4
:10410400204600F05DFC2046FCF75AF84449C0F113
:104114008002204600F054FC2046FCF751F805F1DB
:104124003601C0F18002204600F04AFC2046FCF72C
:1041340047F83C49C0F18002204600F041FC20468B
:10414400FCF73EF805F13901C0F18002204600F089
:1041540037FC2046FCF734F83249C0F1800220468F
:1041640000F02EFC2046FCF72BF805F13C01C0F1D1
:104174008002204600F024FC2046FCF721F8274961
:10418400C0F18002204600F01BFC2046FCF718F822
:1041940005F14101C0F18002204600F011FC9DF8B8
:1041A4008B30302B11D12046FCF70AF81B49C0F1A3
:1041B4008002204600F004FC2046FCF701F828A900
:1041C400C0F18002204600F0FBFB2046FFF793FD80
:1041D400012808D12046FBF7F3FF1349C0F1800200
:1041E400204600F0EDFB2046FBF7EAFF0F49C0F143
:1041F4008002204600F0E4FB204600F033FB6423F9
:10420400B6FBF3F503FB156525B92046FCF7DCFE88
:10421400C8F800503746D1E528ADEAE53D5A000814
:104224003F5A0008415A0008435A00084B5A0008F4
:104234000023302280F8423080F8412080F8242086
:1042440080F8253080F8362080F83730C272037346
:104254004275837580F83530C275037680F8222064
:1042640080F8233080F8392080F83A3080F8302004
:1042740080F8313080F82C2080F82D3002704370A3
:1042840080F8332080F8343080F83C2080F83D30CA
:10429400704700000148FFF7CBBF00BF7004002047
:1042A40070B52B4888B0FDF72BF92A4D0121202049
:1042B400FCF77AFB01210420FCF75EFB2846082268
:1042C4000621FCF7F1F9284608220721FCF7ECF94E
:1042D4000024C022022302A9284602928DF80C3041
:1042E4008DF80D308DF80E408DF80F40FCF784F9F1
:1042F4004FF4164304930C23A5F5744504A92846EA
:104304000126ADF81A30ADF81C40ADF81840ADF8F0
:104314001640ADF81440FCF7B5FC472301A88DF80E
:1043240004308DF807608DF805408DF80640FBF7E2
:1043340059FF3246284640F22551FCF711FD31461B
:104344002846FCF7F9FCFFF7A5FF08B070BD00BFD5
:1043540028080020000802407047000008B540F219
:1043640025510948FCF71AFD68B140F22551064869
:10437400FCF734FD0448FCF7EFFCBDE80840C1B28B
:104384000248FDF7D3B808BD0014014028080020F6
:10439400024610B5131A12F8014BDBB28C42F9D164
:1043A4000029F7D0184610BD934228BF134630B5F4
:1043B40043B15D1E4A1E441E29448A4206D100228E
:1043C400C25430BD30224370027030BD12F8015F18
:1043D40004F8015FF1E700002DE9FF410378472B62
:1043E40040F0DE804378502B40F0DA80841C2C218E
:1043F4002046FFF7CDFF21460246054606236846C0
:10440400FFF7D2FF03226946674800F0EDFA013551
:104414002C440746002840F089804FF00108634E81
:104424002C21204686F83580FFF7B2FF0546454427
:1044340002460623214630462C44FFF7B5FF2C21C3
:104444002046FFF7A5FF05464544024609232146B9
:1044540006F10B002C44FFF7A7FF2C212046FFF7A1
:1044640097FF0546454402464346214606F115009A
:104474002C44FFF799FF2C212046FFF789FF0546BE
:10448400454402460A23214606F117002C44FFF74F
:104494008BFF2C212046FFF77BFF0546454402464F
:1044A4004346214606F122002C44FFF77DFF2C21D0
:1044B4002046FFF76DFF0546454402464346214624
:1044C40006F133002C44FFF76FFF2C212046FFF741
:1044D4005FFF05464544254402460223214606F172
:1044E4003000FFF761FF2C212846FFF751FF0446F7
:1044F4004444024604232C44294606F14100FFF7B4
:1045040053FF2C212046FFF743FF2E21054620466A
:10451400FFF73EFFA84228BF28460723C2B2214620
:1045240006F12400FFF740FF86F835700322694640
:104534001F4800F059FA074690BB01231B4D2C215C
:10454400204685F83530FFF723FF013004442C2141
:104554002046FFF71DFF0646013602460223214688
:1045640005F136003444FFF71FFF2C212046FFF7E6
:104574000FFF0646013602460223214605F13900A3
:104584003444FFF711FF2C212046FFF701FF0423D9
:104594000246214605F13C00FFF706FF85F8357019
:1045A40004B0BDE8F08100BF685A00087004002020
:1045B4006C5A0008002313B502A901F8013D0F4805
:1045C400FCF7A4FF0446B8B99DF807100C4A242947
:1045D40003D11070204602B010BD2A2904D11070F6
:1045E4000848FFF7F9FEF5E71378581C1070054AE0
:1045F40003F07F03D154EDE70124EBE72808002002
:1046040036050020B6040020462200F091B90000CF
:104614000149FFF7F9BF00BF70040020DFF834D070
:10462400002103E00C4B5B58435004310B480C4B06
:1046340042189A42F6D30B4A02E0002342F8043BA4
:10464400094B9A42F9D300F081F800F04DF9FFF7D5
:104654005FFB704700400120B85B000800000020A9
:10466400E4030020E80300203C0A002008B5FEF71C
:10467400F7FEFFF7E8F8BDE80840FDF7EBBF08B523
:1046840030B9FEF7CBF910F1FF3018BF012008BD97
:10469400012008BD07B518B1022003B05DF804FB82
:1046A4000749FDF7EDFC0028F6D101AA6946054843
:1046B400FDF743FF00280CBF00200320EDE700BFF7
:1046C40038050020705A000808B5014610B9FDF7F6
:1046D400D7FC00B1022008BD10B5044622B901225E
:1046E400FDF7DEFC88B105E0012A05D10222FDF7C1
:1046F400D7FC28B1052010BD022A0AD11222F6E700
:10470400E1682046FDF77BFE08B9002010BD0820B3
:1047140010BD032AEED10A22E2E708B5FDF768FED0
:10472400002814BF0620002008BD10B50446084622
:104734002146FDF780FF002805DB21460A20FDF70E
:1047440062FF002010BD072010BD00000021154BA2
:104754001A6842F001021A6099601A6822F08472A1
:1047640022F480321A60104A5A601A6822F48022B5
:104774001A60D9604FF4E0610C4A11609A689A603B
:104784009A689A609A689A60094A5A601A6842F06C
:1047940080721A601A689201FCD54FF00062054BD2
:1047A4009A6070470038024010300024003C0240F8
:1047B4000830030C00ED00E0012130B5084687B055
:1047C4001F4DFCF7D9F801211020FCF7EDF828461D
:1047D40007220921FBF768FF284607220A21FBF775
:1047E40063FF00244FF4C062022369462846009206
:1047F4008DF804308DF806408DF807408DF80530AB
:10480400FBF7FAFE4FF4E13302930823ADF80C40B2
:10481400ADF80E40ADF81040ADF8144004F18044FA
:1048240004F588340DEB03012046ADF81230FCF793
:1048340029FA01212046FCF77FFA07B030BD00BFFA
:104844000000024010B501460548FCF781FA044C0B
:1048540040212046FCF79CFA0028F9D010BD00BF87
:104864000010014010B5441E14F8010F00B910BD2A
:10487400FFF7E8FFF8E7000008B540F225510748C4
:10488400FCF78CFA012808D10448FCF765FABDE866
:104894000840C1B20248FCF749BE08BD00100140FF
:1048A4003009002038B505467D20FCF7A1F890B109
:1048B400FCF7B2F8012445F25550FBF7F7FF03204B
:1048C400FBF7FAFF2846FBF7FDFFFCF701F8FCF7BE
:1048D40007F8204638BD0446EDE7FBF7F9BF0A2286
:1048E400002100F013B9000070B500250C4E0D4CEA
:1048F400A41BA410A54209D100F04AFD00250A4ECC
:104904000A4CA41BA410A54205D170BD56F825304D
:1049140098470135EEE756F8253098470135F2E718
:10492400B05B0008B05B0008B05B0008B45B000833
:1049340010B5431E0A44914200D110BD11F8014B39
:1049440003F8014FF7E700000CB430B5174B0C1E09
:104954009DB01D6808DA8B234FF0FF302B601DB02B
:10496400BDE8304002B070474FF40273ADF8143024
:104974000CBF234604F1FF33049307934FF6FF73F0
:1049840002900690ADF81630209A21AB02A9284671
:10499400019300F041F9431CBCBF8B232B60002C16
:1049A400DDD00022029B1A70D9E700BF1402002058
:1049B400034611F8012B03F8012B002AF9D17047A3
:1049C400034630B51C785D1C44B912F1FF3204D3A0
:1049D40011F8014B03F8014B14B930BD2B46F1E734
:1049E400002AF2D11A70F0E710B56AB101398418BF
:1049F40010F8013B11F8012F934203D1A04201D0DA
:104A0400002BF5D1981A10BD104610BD2DE9F84FB2
:104A14008046894692461F468B465D460A9815F89D
:104A2400014B00F089F82044467816F008060BD1B3
:104A34002D2C0BD101262C780BF1020567B1102F18
:104A440014D1302C0AD011E0AB46E6E72B2C04BF7E
:104A54002C780BF10205F1E7302C27D12B7803F0E9
:104A6400DF03582B4BD110276C780235002E0CBF76
:104A74006FF000414FF000410022B1FBF7FE1046F9
:104A840007FB1E1CA4F13003092B11D81C46A742B6
:104A94001DDD531C07D0864516D301D1A44513DB75
:104AA400012200FB074015F8014BEBE70A27DDE77D
:104AB400A4F14103192B01D8373CE8E7A4F16103C1
:104AC400192B04D8573CE2E74FF0FF32EBE7531CB5
:104AD40008D122230846C8F80030BAF1000F07D1E4
:104AE400BDE8F88F06B14042BAF1000F0CD022B1F4
:104AF400013DCAF80050BDE8F88F4D46F9E730246F
:104B0400002FB3D10827B1E7BDE8F88F084B37B5BC
:104B14001C68084D236A002B08BF2B4600931346DC
:104B24000A4601462046FFF771FF03B030BD00BFBF
:104B34001402002078020020D0F8EC00704782B004
:104B440001B901A942B14BB113780B601278101C62
:104B540018BF012002B070471046FBE76FF0010058
:104B6400F8E72DE9F0478E6882469E420C4691464E
:104B7400984635D88A8912F4906F31D0022325687B
:104B840009696F1A656905EB450595FBF3F508F1AD
:104B940001033B449D4238BF1D46530531D5294688
:104BA40000F048FB064650B90C23CAF80030A3892C
:104BB4004FF0FF3043F04003A381BDE8F0873A464D
:104BC4002169FFF7B5FEA38923F4906343F08003C2
:104BD400A38126613E44266046466561ED1BA560BF
:104BE400464528BF464649463246206800F0BBFA8F
:104BF400A36800209B1BA36023681E442660BDE8B5
:104C0400F0872A4600F074FB06460028E1D12169AA
:104C1400504600F0C3FAC7E72DE9F04F9DB0039367
:104C24008B8980461C060D4616460FD50B696BB959
:104C3400402100F0FFFA2860286128B90C23C8F845
:104C440000304FF0FF30C4E040236B610023099330
:104C540020238DF8293030234FF0010B8DF82A30B2
:104C640037463C4614F8013B002B3CD1B7EB060A0F
:104C74000BD05346324629464046FFF772FF0130B7
:104C840000F0A280099B534409933B78002B00F069
:104C94009B8000234FF0FF32049307930592069301
:104CA4008DF853301A9305222178504800F04DFABC
:104CB400671C049BD8B9D90644BF20228DF8532021
:104CC4001A0744BF2B228DF8532022782A2A16D0A3
:104CD40000210A20079A27463B780134303B092BF0
:104CE40050D9C9B111E0252BC0D02746B9E73F4AB6
:104CF4003C46801A0BFA00F018430490D3E7039A59
:104D0400111D12680391002A01DB079204E052424C
:104D140043F00203079204933B782E2B0DD17B784A
:104D2400791C2A2B32D1039B02371A1D1B6803926C
:104D3400002BB8BF4FF0FF3305932D4C0322397875
:104D4400204600F002FA38B14023001B03FA00F0B9
:104D5400049B0137034304933978062225487E1CBB
:104D64008DF8281000F0F1F9002835D0224BFBB95A
:104D7400039B073323F0070308330393099B4B4436
:104D840009936DE700FB02320121A4E700230A2402
:104D9400184605930F463A780131303A092A03D967
:104DA400002BCAD00590C8E704FB00200123F1E7DB
:104DB40003AB00932A46114B04A94046AFF300808D
:104DC400B0F1FF3F8146D9D1AB895B063FF539AFDE
:104DD40009981DB0BDE8F08F03AB00932A46074B3A
:104DE40004A9404600F084F8EAE700BF7B5A0008B3
:104DF400815A0008855A000800000000674B00082B
:104E04002DE9F04791461F468A680B69064693428E
:104E1400B8BF1346C9F8003091F843200C46DDF8BA
:104E2400208012B10133C9F800302368990642BFCB
:104E3400D9F800300233C9F80030256815F00605AA
:104E440007D104F1190AE368D9F800209B1A9D429E
:104E54002ADB94F843302268003318BF01239206FA
:104E64002FD404F1430239463046C047013022D0E2
:104E74002368E56803F00603042B18BF0025D9F85E
:104E840000204FF0000908BFAD1AA368226908BFCB
:104E940025EAE5759342C4BF9B1AED181A344D45B3
:104EA4001BD10020BDE8F087012352463946304625
:104EB400C047013003D14FF0FF30BDE8F087013522
:104EC400C1E73020E11881F843005A1C94F84510DA
:104ED4002244023382F84310C3E7012322463946B1
:104EE4003046C0470130E6D009F10109D7E7000098
:104EF4002DE9F04317460A7E85B06E2A9846064689
:104F04000C460C9B01F1430E00F0BC801AD8632AB6
:104F14002ED00AD8002A00F0C880582A00F08A80CF
:104F240004F1420584F842202AE0642A01D0692A67
:104F3400F6D121681A6811F0800F23D0111D196071
:104F4400136827E0732A00F0B48008D86F2A2AD0A7
:104F5400702AE5D10A6842F020020A6003E0752A4B
:104F640021D0782ADCD178226F4984F8452064E086
:104F74001A6801F14205111D1960136884F8423062
:104F84000123A3E011F0400F02F104011960D7D00E
:104F9400B2F90030002B03DA2D225B4284F843205F
:104FA40062490A2217E02068196810F0800F03D0C4
:104FB400081D18600B6806E010F0400F01F10400B2
:104FC4001860F7D00B886F2A14BF0A2208225749A9
:104FD400002084F843006568002DA560C0F29C8021
:104FE400206820F004002060002B3FD1002D40F009
:104FF40095807546082A0BD12368DA0708D52369FA
:1050040062689A42DEBF302305F8013C05F1FF35A2
:10501400AEEB05032361CDF800803B4603AA21468D
:105024003046FFF7EDFE013055D14FF0FF3005B0AB
:10503400BDE8F08381F845203C492268186812F0E5
:10504400800F00F104051D6001D0036802E05506DD
:10505400FBD50388D00744BF42F0200222601BB96D
:10506400226822F0200222601022B1E77546B3FBC9
:10507400F2F002FB1033CB5C05F8013D0346002837
:10508400F5D1B7E708681A6810F0800F496904D0B1
:10509400101D18601368196007E010F0400F02F14A
:1050A400040018601368F6D0198000237546236144
:1050B400B1E71A68111D1960156800216268284655
:1050C40000F043F808B1401B60606368236100236B
:1050D40084F843309FE723692A4639463046C0475F
:1050E4000130A2D023689B0707D5002504F11909D4
:1050F400E368039A9B1A9D4205DBE068039B984290
:10510400B8BF184693E701234A4639463046C0479C
:1051140001308AD00135EBE7002BA7D10B7804F1DD
:10512400420584F8423065E79D5A00088C5A00080D
:1051340049B1FF2A8BBF8A230A700360012088BF0C
:105144004FF0FF3070470846704710B5C9B20244AB
:105154009042034601D1002010BD1C7801308C42DE
:10516400F6D1184610BD884210B501EB020303D8EE
:10517400421E99420CD110BD9842F9D28118D21A1C
:10518400D34200D110BD13F8014D01F8014DF7E7EA
:1051940011F8014B02F8014FEBE7000038B5054662
:1051A400002943D051F8043C0C1F002BB8BFE4186D
:1051B40000F0D4F81E4A1368104633B963601460D3
:1051C4002846BDE8384000F0CAB8A3420BD921688C
:1051D4006218934201BF1A685B68521822606360C8
:1051E4000460EDE713465A680AB1A242FAD9196875
:1051F4005818A0420BD12068014458188242196003
:10520400DED110685268014419605A60D8E702D9A7
:105214000C232B60D4E7206821188A4201BF11684F
:1052240052680918216062605C60C9E738BD00BF3C
:105234006C07002070B5CD1C25F0030508350C2D36
:1052440038BF0C25002D064601DBA94203D90C23E7
:105254003360002070BD00F081F8234A14682146B1
:1052640091B9224C23681BB9304600F067F82060DE
:105274002946304600F062F8431C26D10C23304600
:10528400336000F06CF8E4E70B685B1B1AD40B2B5B
:105294000FD90B60CC18CD50304600F060F804F103
:1052A4000B00231D20F00700C31A1BD05A42E25002
:1052B40070BD8C420BBF63684B681360636018BF9A
:1052C4000C46E9E70C464968CAE7C41C24F0030409
:1052D400A04205D0211A304600F030F80130CDD07C
:1052E4002560D9E770BD00BF6C070020700700205F
:1052F400F8B5074614460E4621B91146BDE8F840F4
:10530400FFF798BF22B9FFF749FF25462846F8BDA5
:1053140000F026F884420FD921463846FFF78AFF69
:1053240005460028F2D031462246FFF701FB3146FC
:105334003846FFF733FFE9E73546E7E738B500239A
:10534400054C05460846236000F014F8431C02D1BE
:10535400236803B12B6038BD380A002070477047BA
:1053640051F8040C0028A0F10400BCBF0B58C0186D
:1053740070470000044B0246196809B903491960D3
:10538400186802441A607047740700203C0A002021
:10539400F8B500BFF8BC08BC9E467047F8B500BF1E
:0853A400F8BC08BC9E467047EE
:1053AC00FF070F081F0830084008500861087108F3
:1053BC0081089108A208B208C208D308E308F308D0
:1053CC0003091309240934094409540964097409AB
:1053DC0084099409A409B409C409D409E409F3099A
:1053EC00030A130A230A320A420A510A610A700A92
:1053FC00800A8F0A9F0AAE0ABD0ACC0ADB0AEA0AA7
:10540C00F90A080B170B260B350B440B520B610BCF
:10541C00700B7E0B8D0B9B0BA90BB70BC60BD40B18
:10542C00E20BF00BFD0B0B0C190C270C340C420C83
:10543C004F0C5C0C6A0C770C840C910C9E0CAB0C16
:10544C00B70CC40CD10CDD0CEA0CF60C020D0E0DD5
:10545C001A0D260D320D3E0D490D550D600D6C0DBE
:10546C00770D820D8D0D980DA30DAD0DB80DC30DDF
:10547C00CD0DD70DE10DEB0DF50DFF0D090E130E36
:10548C001C0E260E2F0E380E410E4A0E530E5C0EBD
:10549C00640E6D0E750E7D0E850E8D0E950E9D0E89
:1054AC00A50EAC0EB30EBB0EC20EC90ED00ED70E8F
:1054BC00DD0EE40EEA0EF00EF60EFC0E020F080FD7
:1054CC000D0F130F180F1D0F230F270F2C0F310F5C
:1054DC00350F3A0F3E0F420F460F4A0F4E0F510F2A
:1054EC00550F580F5B0F5E0F610F640F670F690F3D
:1054FC006C0F6E0F700F720F740F750F770F780F94
:10550C00790F7B0F7C0F7C0F7D0F7E0F7E0F7E0F34
:10551C007E0F7E0F7E0F7E0F7E0F7D0F7C0F7C0F1C
:10552C007B0F790F780F770F750F740F720F700F49
:10553C006E0F6C0F690F670F640F610F5E0F5B0FBF
:10554C00580F550F510F4E0F4A0F460F420F3E0F7B
:10555C003A0F350F310F2C0F270F230F1D0F180F7C
:10556C00130F0D0F080F020FFC0EF60EF00EEA0EC5
:10557C00E40EDD0ED70ED00EC90EC20EBB0EB30E4E
:10558C00AC0EA50E9D0E950E8D0E850E7D0E750E18
:10559C006D0E640E5C0E530E4A0E410E380E2F0E1D
:1055AC00260E1C0E130E090EFF0DF50DEB0DE10D65
:1055BC00D70DCD0DC30DB80DAD0DA30D980D8D0DE3
:1055CC00820D770D6C0D600D550D490D3E0D320D94
:1055DC00260D1A0D0E0D020DF60CEA0CDD0CD10C7D
:1055EC00C40CB70CAB0C9E0C910C840C770C6A0C95
:1055FC005C0C4F0C420C340C270C190C0B0CFD0BD7
:10560C00F00BE20BD40BC60BB70BA90B9B0B8D0B42
:10561C007E0B700B610B520B440B350B260B170BCF
:10562C00080BF90AEA0ADB0ACC0ABD0AAE0A9F0A81
:10563C008F0A800A700A610A510A420A320A230A46
:10564C00130A030AF309E409D409C409B409A40927
:10565C009409840974096409540944093409240916
:10566C0013090309F308E308D308C208B208A20817
:10567C0091088108710861085008400830081F081B
:10568C000F08FF07EE07DE07CD07BD07AD079C0728
:10569C008C077C076C075B074B073B072A071A072D
:1056AC000A07FA06EA06D906C906B906A906990632
:1056BC008906790669065906490639062906190626
:1056CC000A06FA05EA05DA05CB05BB05AC059C050F
:1056DC008D057D056E055E054F05400531052205DE
:1056EC0013050405F504E604D704C804B904AB0497
:1056FC009C048D047F047004620454044604370433
:10570C0029041B040D040004F203E403D603C903AB
:10571C00BB03AE03A1039303860379036C035F03FE
:10572C005203460339032C03200313030703FB0224
:10573C00EF02E302D702CB02BF02B402A8029D0221
:10574C00910286027B02700265025A0250024502E7
:10575C003A02300226021C0212020802FE01F40177
:10576C00EA01E101D701CE01C501BC01B301AA01D7
:10577C00A1019901900188018001780170016801F3
:10578C006001580151014A0142013B0134012D01D4
:10579C0026012001190113010D0107010101FB0074
:1057AC00F500F000EA00E500E000DA00D600D100D8
:1057BC00CC00C800C300BF00BB00B700B300AF00F3
:1057CC00AC00A800A500A2009F009C0099009600C8
:1057DC00940091008F008D008B008900880086005A
:1057EC008500840082008100810080007F007F00A2
:1057FC007F007F007F007F007F007F0080008100A2
:10580C0081008200840085008600880089008B005E
:10581C008D008F0091009400960099009C009F00D1
:10582C00A200A500A800AC00AF00B300B700BB00FD
:10583C00BF00C300C800CC00D100D600DA00E000E5
:10584C00E500EA00F000F500FB00010107010D0185
:10585C0013011901200126012D0134013B014201E4
:10586C004A01510158016001680170017801800101
:10587C00880190019901A101AA01B301BC01C501E4
:10588C00CE01D701E101EA01F401FE010802120286
:10589C001C02260230023A02450250025A026502EC
:1058AC0070027B02860291029D02A802B402BF0222
:1058BC00CB02D702E302EF02FB0207031303200320
:1058CC002C033903460352035F036C0379038603ED
:1058DC009303A103AE03BB03C903D603E403F20392
:1058EC0000040D041B042904370446045404620408
:1058FC0070047F048D049C04AB04B904C804D70461
:10590C00E604F504040513052205310540054F0591
:10591C005E056E057D058D059C05AC05BB05CB05AF
:10592C00DA05EA05FA050A061906290639064906B2
:10593C0059066906790689069906A906B906C906A3
:10594C00D906EA06FA060A071A072A073B074B0785
:10595C005B076C077C078C079C07AD07BD07CD0761
:10596C00DE07EE07808182838485868788898A8B0F
:10597C008C8D8E8F90919293949596979899AD9BD0
:10598C008C9DAE9FA021A2A3A4A5A6A7A8A9AAAB53
:10599C00ACADAEAFB0B1B2B3B4B5B6B7B8B9BABBC3
:1059AC00BCBDBEBFC0C1C2C3C4C5C6C7C8C9CACBB3
:1059BC00CCCDCECFD0D1D2D3D4D5D6D7D8D9DADBA3
:1059CC00DCDDDEDFC0C1C2C3C4C5C6C7C8C9CACB13
:1059DC00CCCDCECFD0D1D2D3D4D5D6F7D8D9DADB63
:1059EC00DCDDDE9F222A2B2C3A3B3C3D3E3F5B5DAF
:1059FC007C7F00303A2F4C6F676765722E74787419
:105A0C00000D0A21215741544348444F472043413C
:105A1C005553454420524553455421210D0A002528
:105A2C006900256875000D0A0D0A444B304854571F
:105A3C00002C002A002E002C53445F455252000DBE
:105A4C000A0D0A000D0A0D0A446174653A2041756D
:105A5C006720323220323031370D0A00474741007F
:105A6C005A444100303A004300504F5349580023E8
:105A7C002D302B2000686C4C00656667454647004E
:105A8C003031323334353637383941424344454668
:105A9C0000303132333435363738396162636465FE
:105AAC0066000020202020202020202028282828C4
:105ABC0028202020202020202020202020202020D2
:105ACC002020208810101010101010101010101022
